:100000000C9462000C948A000C948A000C940705EE
:100010000C9407050C9407050C948A000C948A0034
:100020000C948A000C948A000C948A000C948A0028
:100030000C948A000C948A000C948A000C948A0018
:100040000C9465040C948A000C94D5040C94AF04B1
:100050000C948A000C948A000C948A000C948A00F8
:100060000C9411050C948A00000000002400270065
:100070002A0000000000250028002B0000000000DE
:1000800023002600290004040404040404040202DA
:100090000202020203030303030301020408102007
:1000A0004080010204081020010204081020000012
:1000B0000008000201000003040700000000000027
:1000C00000002C0611241FBECFEFD8E0DEBFCDBF4D
:1000D00011E0A0E0B1E0E0EBF4E102C005900D9288
:1000E000A238B107D9F722E0A2E8B1E001C01D9221
:1000F000A73AB207E1F710E0C2E6D0E004C02197CA
:10010000FE010E94500AC136D107C9F70E94590664
:100110000C94560A0C940000833081F028F481304E
:1001200099F08230A9F008958730A9F08830C9F09D
:100130008430B1F4809180008F7D03C08091800075
:100140008F7780938000089584B58F7784BD08955C
:1001500084B58F7DFBCF8091B0008F778093B00006
:1001600008958091B0008F7DF9CFCF93DF93282F32
:1001700030E0F901E255FF4F8491F901E656FF4F57
:10018000D491F901EA57FF4FC491CC23A1F081111A
:100190000E948C00EC2FF0E0EE0FFF1FE458FF4FA1
:1001A000A591B491EC91ED2381E090E009F480E019
:1001B000DF91CF91089580E090E0FACF1F93CF9325
:1001C000DF93282F30E0F901E255FF4F8491F901C8
:1001D000E656FF4FD491F901EA57FF4FC491CC2363
:1001E000A9F0162F81110E948C00EC2FF0E0EE0F89
:1001F000FF1FEE58FF4FA591B4918FB7F894EC9183
:10020000111108C0D095DE23DC938FBFDF91CF9111
:100210001F910895DE2BF8CFCF93DF9390E0FC0180
:10022000E656FF4F24918A579F4FFC018491882303
:10023000D1F090E0880F991FFC01E859FF4FA5917C
:10024000B491FC01EE58FF4FC591D49161110EC0DD
:100250009FB7F8948C91E22FE0958E238C932881A0
:10026000E223E8839FBFDF91CF9108958FB7F89481
:10027000EC91E22BEC938FBFF6CF3FB7F8948091CF
:10028000060290910702A0910802B091090226B5DA
:10029000A89B05C02F3F19F00196A11DB11D3FBFBE
:1002A000BA2FA92F982F8827BC01CD01620F711D8D
:1002B000811D911D42E0660F771F881F991F4A9587
:1002C000D1F70895AF92BF92CF92DF92EF92FF9253
:1002D0000F931F93CF93DF936C017B018B01040F6E
:1002E000151FEB015E01AE18BF08C017D10759F00A
:1002F0006991D601ED91FC910190F081E02DC6014C
:100300000995892B79F7C501DF91CF911F910F9145
:10031000FF90EF90DF90CF90BF90AF900895FC01D9
:10032000538D448D252F30E0842F90E0821B930B5A
:10033000541710F0CF96089501970895FC01918D00
:10034000828D981761F0A28DAE0FBF2FB11D5D9603
:100350008C91928D9F5F9F73928F90E008958FEFA5
:100360009FEF0895FC01918D828D981731F0828D59
:10037000E80FF11D858D90E008958FEF9FEF0895B0
:10038000FC01918D228D892F90E0805C9F4F821B14
:1003900091098F73992708958AE092E00E94C00125
:1003A00021E0892B09F420E0822F089580E090E07D
:1003B000892B29F00E94CC0181110C940000089532
:1003C000FC01A48DA80FB92FB11DA35ABF4F2C91CA
:1003D000848D90E001968F739927848FA689B789C1
:1003E0002C93A089B1898C91837080648C93938DB8
:1003F000848D981306C00288F389E02D80818F7D5B
:1004000080830895EF92FF920F931F93CF93DF9312
:10041000EC0181E0888F9B8D8C8D98131AC0E88940
:10042000F989808185FF15C09FB7F894EE89FF890F
:100430006083E889F98980818370806480839FBFAD
:1004400081E090E0DF91CF911F910F91FF90EF90AD
:100450000895F62E0B8D10E00F5F1F4F0F731127BD
:10046000E02E8C8D8E110CC00FB607FCFACFE889F8
:10047000F989808185FFF5CFCE010E94E001F1CF9F
:10048000EB8DEC0FFD2FF11DE35AFF4FF0829FB76C
:10049000F8940B8FEA89FB8980818062CFCFCF935C
:1004A000DF93EC01888D8823B9F0AA89BB89E8899C
:1004B000F9898C9185FD03C0808186FD0DC00FB642
:1004C00007FCF7CF8C9185FFF2CF808185FFEDCFC0
:1004D000CE010E94E001E9CFDF91CF9108952091F4
:1004E000A901260F3327331F21323105ECF4209167
:1004F000CD01FC0190E080E0243069F082E00895B5
:10050000A091A9012191AC0147575E4FA40FB52FCF
:10051000B11D2C930196861798F38091A901680F5D
:100520006093A90180E0089581E0089508958FEF18
:100530009FEF08958FEF9FEF08958091820190E0E3
:100540009195819591090895CF93DF93CB01EA01AD
:10055000642F0E946F02CE01DF91CF910895CF9357
:10056000DF931F92CDB7DEB7698361E0CE010196BC
:100570000E946F0281E090E00F90DF91CF9108958B
:1005800090E080E00895FC0101900020E9F73197A8
:10059000AF01481B590BBC018AE092E00C94620148
:1005A0008F929F92AF92BF920F931F93CF93DF933F
:1005B000CDB7DEB7A1970FB6F894DEBF0FBECDBFA3
:1005C00019A2423008F44AE08E010F5D1F4F842EBD
:1005D000912CB12CA12CA50194010E94DC07E62FDF
:1005E000B901CA01EA30F4F4E05DD801EE938D015F
:1005F000232B242B252B79F790E080E0109719F01E
:10060000CD010E94C302A1960FB6F894DEBF0FBEC3
:10061000CDBFDF91CF911F910F91BF90AF909F9071
:100620008F900895E95CE1CF4F925F926F927F9235
:100630008F929F92AF92BF92CF92DF92EF92FF92F2
:100640000F931F93CF936B017C01742EAC019B0120
:100650000E944B0A882399F082E191E0CF911F918B
:100660000F91FF90EF90DF90CF90BF90AF909F9051
:100670008F907F906F905F904F900C94C3024601D3
:100680005701E894B7F82FEF3FEF4FE75FE7C50159
:10069000B4010E944B0A81110DC02FEF3FEF4FE7CD
:1006A0005FE7C501B4010E947A0818161CF486E1C0
:1006B00091E0D4CF2FEF3FEF4FE75FE4C701B601E2
:1006C0000E94D90918161CF48AE191E0C7CF2FEFD8
:1006D0003FEF4FE75FECC701B6010E947A0887FD44
:1006E000F3CF20E030E0A901C701B6010E947A08EB
:1006F00010E000E087FF0AC06DE28AE092E00E940D
:1007000002028C01F7FAF094F7F8F094C0E060E090
:1007100070E080E09FE37C1641F020E030E040E2B2
:1007200051E40E947F08CF5FF6CFA70196010E9497
:100730000E082B013C010E94F8084B015C014AE0C5
:100740000E94D0027C01E00EF11ECC23C1F1C50154
:10075000B4010E9427099B01AC01C301B2010E94B0
:100760000D084B015C016EE28AE092E00E940202F9
:10077000E80EF91EC15018F120E030E040E251E4EB
:10078000C501B4010E94DE092B013C010E94F8085A
:100790004B01B12CA12C4AE0C501B4010E94D0024A
:1007A000E80EF91EC501B4010E9427099B01AC01A6
:1007B000C301B2010E940D084B015C01DBCFC701F0
:1007C000CF911F910F91FF90EF90DF90CF90BF904E
:1007D000AF909F908F907F906F905F904F90089513
:1007E0001F93CF93DF9385ED8093BC0080918501AB
:1007F00090918601A0918701B09188010796A11D73
:10080000B11D23E0B695A795979587952A95D1F7C1
:100810002091BC0024FD03C01092CD0152C0409134
:100820008501509186016091870170918801452B67
:10083000462B472B69F30097A105B10541F02AE249
:100840002A95F1F700C00197A109B109E1CF809184
:100850008401C1E0C0938301882399F1D091B8004D
:100860001091BA008091BC008A7B8093BC0060E04C
:1008700082E10E94DE0060E083E10E94DE001092CF
:10088000CD01C093CF011092CE0161E082E10E94C0
:10089000DE0061E083E10E94DE008091B9008E7F7E
:1008A0008093B9008091B9008D7F8093B90088E46E
:1008B0008093B80085E48093BC001093BA00D09375
:1008C000B800DF91CF911F9108951F920F920FB63C
:1008D0000F9211242F933F938F939F93AF93BF93C6
:1008E0008091020290910302A0910402B09105024E
:1008F0003091010223E0230F2D3758F50196A11DF9
:10090000B11D209301028093020290930302A093F1
:100910000402B09305028091060290910702A09113
:100920000802B09109020196A11DB11D8093060233
:1009300090930702A0930802B0930902BF91AF9170
:100940009F918F913F912F910F900FBE0F901F900D
:10095000189526E8230F0296A11DB11DD2CF1F9234
:100960000F920FB60F9211242F933F934F935F93E3
:100970006F937F938F939F93AF93BF93EF93FF9367
:100980008AE092E00E94E001FF91EF91BF91AF9168
:100990009F918F917F916F915F914F913F912F9197
:1009A0000F900FBE0F901F9018951F920F920FB6C9
:1009B0000F9211242F938F939F93EF93FF93E091C6
:1009C0001A02F0911B028081E0912002F091210235
:1009D00082FD1BC09081809123028F5F8F732091D5
:1009E0002402821741F0E0912302F0E0E65FFD4F20
:1009F000958F80932302FF91EF919F918F912F917B
:100A00000F900FBE0F901F9018958081F4CF1F920A
:100A10000F920FB60F9211240F900FBE0F901F90E0
:100A200018951F920F920FB60F9211242F933F9398
:100A30004F935F936F937F938F939F93AF93BF93E6
:100A4000EF93FF938091B900887F803609F44AC004
:100A5000F0F5883209F4A5C018F5803109F499C081
:100A6000B8F4882309F4F5C0883009F492C0FF91E6
:100A7000EF91BF91AF919F918F917F916F915F9116
:100A80004F913F912F910F900FBE0F901F9018958F
:100A9000883109F486C0803251F78093CC0114C0AC
:100AA000803409F49BC040F48033B9F38833F9F6FD
:100AB0008093CC0185ECAEC0803509F483C08835C5
:100AC00009F494C0883499F60E94F003D0CF883995
:100AD00009F48AC038F5883729F050F4883611F0C7
:100AE000803729F683E08093CD011092CB0155C069
:100AF000883809F479C0803919F0803809F0B7CF07
:100B00008091CB01803208F06FC0E091CB0181E091
:100B10008E0F8093CB018091BB00F0E0E555FE4F36
:100B200080833BC0803B39F0D0F4803A09F477C031
:100B3000883A09F09CCF84E08093CD011092AA01FD
:100B40001092A901F0E0E0E009958091A9018111DE
:100B50000FC081E08093A9011092890109C0803CF7
:100B600009F4A8CF883C09F4A5CF883B09F07FCFD2
:100B7000E091AA0181E08E0F8093AA01F0E0E7578F
:100B8000FE4F80818093BB009091AA018091A901C2
:100B900029C08091F2018093BB0085EC8093BC005A
:100BA00066CF9091F1018091F001981758F5E0918E
:100BB000F10181E08E0F8093F101F0E0E053FE4FF0
:100BC0008081E9CFE091F10181E08E0F8093F10106
:100BD0008091BB00F0E0E053FE4F80839091F101E3
:100BE0008091F0019817C8F285E8D8CFE091F10123
:100BF00081E08E0F8093F1018091BB00F0E0E05323
:100C0000FE4F80838091CF0181115ECF81E0809380
:100C1000CE0184EA8093BC001092CD0128CF85ECF0
:100C20008093BC001092CD018091CB01803230F4D2
:100C3000E091CB01F0E0E555FE4F10826091CB01D1
:100C400070E08BEA91E0F0E0E0E009951092CB01D2
:100C50000ECF1092CC0138CFEAE0F2E0138212827C
:100C600088EE93E0A0E0B0E084839583A683B78309
:100C700084E091E09183808385EC90E09587848780
:100C800084EC90E09787868780EC90E0918B808B56
:100C900081EC90E0938B828B82EC90E0958B848B3F
:100CA00086EC90E0978B868B118E128E138E148EAD
:100CB0000895789484B5826084BD84B5816084BDD4
:100CC00085B5826085BD85B5816085BD80916E00EA
:100CD000816080936E00109281008091810082601B
:100CE0008093810080918100816080938100809158
:100CF00080008160809380008091B1008460809347
:100D0000B1008091B00081608093B00080917A0042
:100D1000846080937A0080917A00826080937A0068
:100D200080917A00816080937A0080917A00806857
:100D300080937A001092C100E0911A02F0911B0298
:100D400082E08083E0911602F09117021082E09118
:100D50001802F09119028FEC808310922202E09128
:100D60001E02F0911F0286E08083E0911C02F09148
:100D70001D02808180618083E0911C02F0911D0240
:100D8000808188608083E0911C02F0911D02808147
:100D900080688083E0911C02F0911D0280818F7D2C
:100DA000808360E08EE00E940C0160E082E00E949F
:100DB0000C0160E083E10E940C0161E08DE00E9483
:100DC0000C0110E444244A9493E0592E612C712CB8
:100DD000C0E0D0E010937C0080917A008064809322
:100DE0007A0080917A0086FDFCCF60917800709146
:100DF0007900072E000C880B990B0E9429092AE024
:100E000038E240EA5BE30E94DE096B017C01C0929C
:100E1000FD01D092FE01E092FF01F092000282E01B
:100E20000E94B500BC01990F880B990B0E942909FB
:100E30006093F9017093FA018093FB019093FC0198
:100E400083E10E94B500BC01990F880B990B0E94A9
:100E500029096093F5017093F6018093F70190934F
:100E6000F801C701B6010E94F1089B01AC01AFEF88
:100E7000B0E00E94D107A30192010E94B207622F45
:100E80008DE00E94DE008EE191E00E94C30260913D
:100E9000F5017091F6018091F7019091F80142E01F
:100EA0000E94140320E030E040E85FE36091F50128
:100EB0007091F6018091F7019091F8010E947A08F3
:100EC00081114DC081E391E00E94C3026091F9015C
:100ED0007091FA018091FB019091FC0142E00E9427
:100EE000140383E791E00E94C3026091FD017091B9
:100EF000FE018091FF019091000242E00E941403E4
:100F00000E943D014B015C0184E6C82ED12CE12CEE
:100F1000F12C0E943D01681979098A099B09683EF4
:100F2000734081059105A8F321E0C21AD108E108B8
:100F3000F10888EE880E83E0981EA11CB11CC11434
:100F4000D104E104F10429F7209709F443CF0E946A
:100F5000CC01882309F43ECF0E9400003BCF82E5FC
:100F600091E0B2CF052E97FB1EF400940E94C907B2
:100F700057FD07D00E94DC0707FC03D04EF40C9409
:100F8000C90750954095309521953F4F4F4F5F4F82
:100F9000089590958095709561957F4F8F4F9F4FE5
:100FA00008950E94FE07A59F900DB49F900DA49FE9
:100FB000800D911D11240895A1E21A2EAA1BBB1BBE
:100FC000FD010DC0AA1FBB1FEE1FFF1FA217B30715
:100FD000E407F50720F0A21BB30BE40BF50B661F2B
:100FE000771F881F991F1A9469F7609570958095EF
:100FF00090959B01AC01BD01CF010895A29FB00166
:10100000B39FC001A39F700D811D1124911DB29F3C
:10101000700D811D1124911D08955058BB27AA27DA
:101020000E9425080C949F090E94910938F00E94A3
:10103000980920F039F49F3F19F426F40C948E0996
:101040000EF4E095E7FB0C948809E92F0E94B009A3
:1010500058F3BA17620773078407950720F079F4ED
:10106000A6F50C94D2090EF4E0950B2EBA2FA02D04
:101070000B01B90190010C01CA01A0011124FF2745
:10108000591B99F0593F50F4503E68F11A16F04040
:10109000A22F232F342F4427585FF3CF469537953F
:1010A0002795A795F0405395C9F77EF41F16BA0B04
:1010B000620B730B840BBAF09150A1F0FF0FBB1FB2
:1010C000661F771F881FC2F70EC0BA0F621F731FFB
:1010D000841F48F4879577956795B795F7959E3F58
:1010E00008F0B0CF9395880F08F09927EE0F9795E9
:1010F000879508950E94640908F481E008950E948C
:1011000093080C949F090E94980958F00E94910935
:1011100040F029F45F3F29F00C94880951110C9498
:10112000D3090C948E090E94B00968F39923B1F396
:10113000552391F3951B550BBB27AA2762177307FD
:10114000840738F09F5F5F4F220F331F441FAA1F91
:10115000A9F335D00E2E3AF0E0E832D0915050404D
:10116000E695001CCAF72BD0FE2F29D0660F771FFB
:10117000881FBB1F261737074807AB07B0E809F0E1
:10118000BB0B802DBF01FF2793585F4F3AF09E3F66
:10119000510578F00C9488090C94D3095F3FE4F36F
:1011A000983ED4F3869577956795B795F7959F5FA9
:1011B000C9F7880F911D9695879597F90895E1E0F5
:1011C000660F771F881FBB1F621773078407BA0754
:1011D00020F0621B730B840BBA0BEE1F88F7E095AF
:1011E00008950E94F8086894B1110C94D3090895E9
:1011F0000E94B80988F09F5798F0B92F9927B751E6
:10120000B0F0E1F0660F771F881F991F1AF0BA95AA
:10121000C9F714C0B13091F00E94D209B1E008952D
:101220000C94D209672F782F8827B85F39F0B93F1F
:10123000CCF3869577956795B395D9F73EF490955D
:101240008095709561957F4F8F4F9F4F0895E894DB
:1012500009C097FB3EF490958095709561957F4FFE
:101260008F4F9F4F9923A9F0F92F96E9BB279395AC
:10127000F695879577956795B795F111F8CFFAF4BC
:10128000BB0F11F460FF1BC06F5F7F4F8F4F9F4FED
:1012900016C0882311F096E911C0772321F09EE84B
:1012A000872F762F05C0662371F096E8862F70E0B1
:1012B00060E02AF09A95660F771F881FDAF7880F8B
:1012C0009695879597F90895990F0008550FAA0BE1
:1012D000E0E8FEEF16161706E807F907C0F0121649
:1012E0001306E407F50798F0621B730B840B950B4C
:1012F00039F40A2661F0232B242B252B21F40895A1
:101300000A2609F4A140A6958FEF811D811D08953D
:1013100097F99F6780E870E060E008959FEF80ECA8
:10132000089500240A94161617061806090608954B
:1013300000240A9412161306140605060895092EB1
:101340000394000C11F4882352F0BB0F40F4BF2B20
:1013500011F460FF04C06F5F7F4F8F4F9F4F089560
:1013600057FD9058440F551F59F05F3F71F0479556
:10137000880F97FB991F61F09F3F79F0879508953B
:10138000121613061406551FF2CF4695F1DF08C05A
:10139000161617061806991FF1CF86957105610577
:1013A00008940895E894BB2766277727CB0197F91F
:1013B00008950E94640908F48FEF08950E94F109CE
:1013C0000C949F090E94910938F00E94980920F01E
:1013D000952311F00C9488090C948E0911240C9417
:1013E000D3090E94B00970F3959FC1F3950F50E0A7
:1013F000551F629FF001729FBB27F00DB11D639FC7
:10140000AA27F00DB11DAA1F649F6627B00DA11D6C
:10141000661F829F2227B00DA11D621F739FB00D12
:10142000A11D621F839FA00D611D221F749F332782
:10143000A00D611D231F849F600D211D822F762F1B
:101440006A2F11249F5750409AF0F1F088234AF0F8
:10145000EE0FFF1FBB1F661F771F881F9150504064
:10146000A9F79E3F510580F00C9488090C94D3098C
:101470005F3FE4F3983ED4F3869577956795B795EB
:10148000F795E7959F5FC1F7FE2B880F911D969505
:10149000879597F908950E946409880B990B089520
:1014A000EE0FFF1F0590F491E02D0994F894FFCF03
:1014B00000000000020262018F014F02C0019E0184
:1014C000B2016E616E00696E66006F7666005661ED
:1014D0006C6F722064656C207377697463683A205E
:1014E000005369676E6F20706F73697469766F203F
:1014F0006465206C61207365C3B1616C2044433A1C
:1015000020005369676E6F206E6567617469766F3E
:10151000206465206C61207365C3B1616C20444315
:101520003A200053656E736F722056616C75653A90
:02153000200099
:00000001FF
