:020000040000FA
:100000000C945D000C9485000C9485000C94C10345
:100010000C94C1030C94C1030C9485000C948500CE
:100020000C9485000C9485000C9485000C9485003C
:100030000C9485000C9485000C9485000C9485002C
:100040000C941F030C9485000C948F030C9469038B
:100050000C9485000C9485000C9485000C9485000C
:100060000C94CB030C9485000000000024002700B2
:100070002A0000000000250028002B0004040404CE
:100080000404040402020202020203030303030342
:10009000010204081020408001020408102001021F
:1000A00004081020000000080002010000030407FB
:1000B0000000000000000000E60411241FBECFEF86
:1000C000D8E0DEBFCDBF11E0A0E0B1E0EEE3F2E1A9
:1000D00002C005900D92A434B107D9F722E0A4E440
:1000E000B1E001C01D92A136B207E1F710E0CDE505
:1000F000D0E004C02197FE010E941709CC35D1073A
:10010000C9F70E9413050C941D090C94000090E09F
:10011000FC01EC55FF4F2491FC01E057FF4F349157
:10012000FC01E458FF4FE491EE23C9F0222339F09B
:10013000233001F1A8F4213019F1223029F1F0E047
:10014000EE0FFF1FEE58FF4FA591B4918FB7F894B3
:10015000EC91611126C030953E233C938FBF0895EA
:100160002730A9F02830C9F0243049F78091800069
:100170008F7D03C0809180008F7780938000DFCFD8
:1001800084B58F7784BDDBCF84B58F7DFBCF809125
:10019000B0008F778093B000D2CF8091B0008F7D78
:1001A000F9CF3E2BDACF3FB7F8948091C001909100
:1001B000C101A091C201B091C30126B5A89B05C0A1
:1001C0002F3F19F00196A11DB11D3FBFBA2FA92FD6
:1001D000982F8827BC01CD01620F711D811D911DD3
:1001E00042E0660F771F881F991F4A95D1F708953F
:1001F000AF92BF92CF92DF92EF92FF920F931F9335
:10020000CF93DF936C017B018B01040F151FEB0172
:100210005E01AE18BF08C017D10759F06991D60129
:10022000ED91FC910190F081E02DC6010995892B9B
:1002300079F7C501DF91CF911F910F91FF90EF905A
:10024000DF90CF90BF90AF900895FC01538D448D07
:10025000252F30E0842F90E0821B930B541710F071
:10026000CF96089501970895FC01918D828D98177E
:1002700061F0A28DAE0FBF2FB11D5D968C91928D56
:100280009F5F9F73928F90E008958FEF9FEF089587
:10029000FC01918D828D981731F0828DE80FF11D50
:1002A000858D90E008958FEF9FEF0895FC01918D6B
:1002B000228D892F90E0805C9F4F821B91098F7364
:1002C0009927089584EC91E00E94560121E0892B42
:1002D00009F420E0822F089580E090E0892B29F036
:1002E0000E94620181110C9400000895FC01A48D0C
:1002F000A80FB92FB11DA35ABF4F2C91848D90E048
:1003000001968F739927848FA689B7892C93A0892A
:10031000B1898C91837080648C93938D848D9813B4
:1003200006C00288F389E02D80818F7D8083089547
:10033000EF92FF920F931F93CF93DF93EC0181E035
:10034000888F9B8D8C8D98131AC0E889F9898081DC
:1003500085FF15C09FB7F894EE89FF896083E8890F
:10036000F98980818370806480839FBF81E090E001
:10037000DF91CF911F910F91FF90EF900895F62E8E
:100380000B8D10E00F5F1F4F0F731127E02E8C8D28
:100390008E110CC00FB607FCFACFE889F98980816D
:1003A00085FFF5CFCE010E947601F1CFEB8DEC0FEA
:1003B000FD2FF11DE35AFF4FF0829FB7F8940B8F8A
:1003C000EA89FB8980818062CFCFCF93DF93EC01F4
:1003D000888D8823B9F0AA89BB89E889F9898C912D
:1003E00085FD03C0808186FD0DC00FB607FCF7CFE9
:1003F0008C9185FFF2CF808185FFEDCFCE010E94E9
:100400007601E9CFDF91CF91089520916B01260FFE
:100410003327331F21323105ECF420918F01FC0189
:1004200090E080E0243069F082E00895A0916B01B3
:100430002191AC01455B5E4FA40FB52FB11D2C93EC
:100440000196861798F380916B01680F60936B019A
:1004500080E0089581E0089508958FEF9FEF08955B
:100460008FEF9FEF08958091440190E091958195E1
:1004700091090895CF93DF93CB01EA01642F0E9485
:100480000502CE01DF91CF910895CF93DF931F92A4
:10049000CDB7DEB7698361E0CE0101960E94050207
:1004A00081E090E00F90DF91CF91089590E080E09F
:1004B0000895FC0101900020E9F73197AF01481B36
:1004C000590BBC0184EC91E00C94F8008F929F9240
:1004D000AF92BF920F931F93CF93DF93CDB7DEB749
:1004E000A1970FB6F894DEBF0FBECDBF19A2423060
:1004F00008F44AE08E010F5D1F4F842E912CB12C21
:10050000A12CA50194010E941507E62FB901CA018B
:10051000EA30F4F4E05DD801EE938D01232B242B17
:10052000252B79F790E080E0109719F0CD010E941B
:100530005902A1960FB6F894DEBF0FBECDBFDF9172
:10054000CF911F910F91BF90AF909F908F90089582
:10055000E95CE1CF1F93CF93DF9385ED8093BC00DF
:100560008091470190914801A0914901B0914A01C1
:100570000796A11DB11D23E0B695A7959795879580
:100580002A95D1F72091BC0024FD03C010928F0161
:1005900052C04091470150914801609149017091CA
:1005A0004A01452B462B472B69F30097A105B1055E
:1005B00041F02AE22A95F1F700C00197A109B1099B
:1005C000E1CF80914601C1E0C0934501882399F1B4
:1005D000D091B8001091BA008091BC008A7B8093C2
:1005E000BC0060E082E10E94870060E083E10E943D
:1005F000870010928F01C09391011092900161E0E9
:1006000082E10E94870061E083E10E94870080917F
:10061000B9008E7F8093B9008091B9008D7F80935F
:10062000B90088E48093B80085E48093BC001093FF
:10063000BA00D093B800DF91CF911F9108951F9217
:100640000F920FB60F9211242F933F938F939F9386
:10065000AF93BF938091BC019091BD01A091BE0169
:10066000B091BF013091BB0123E0230F2D3758F526
:100670000196A11DB11D2093BB018093BC019093F5
:10068000BD01A093BE01B093BF018091C0019091C4
:10069000C101A091C201B091C3010196A11DB11D7C
:1006A0008093C0019093C101A093C201B093C30194
:1006B000BF91AF919F918F913F912F910F900FBE5E
:1006C0000F901F90189526E8230F0296A11DB11DCB
:1006D000D2CF1F920F920FB60F9211242F933F93F8
:1006E0004F935F936F937F938F939F93AF93BF933A
:1006F000EF93FF9384EC91E00E947601FF91EF91DC
:10070000BF91AF919F918F917F916F915F914F9129
:100710003F912F910F900FBE0F901F9018951F9231
:100720000F920FB60F9211242F938F939F93EF93F5
:10073000FF93E091D401F091D5018081E091DA013D
:10074000F091DB0182FD1BC090818091DD018F5F04
:100750008F732091DE01821741F0E091DD01F0E01E
:10076000EC53FE4F958F8093DD01FF91EF919F91A8
:100770008F912F910F900FBE0F901F901895808131
:10078000F4CF1F920F920FB60F9211240F900FBE4D
:100790000F901F9018951F920F920FB60F92112471
:1007A0002F933F934F935F936F937F938F939F9379
:1007B000AF93BF93EF93FF938091B900887F80360A
:1007C00009F44AC0F0F5883209F4A5C018F5803163
:1007D00009F499C0B8F4882309F4F5C0883009F405
:1007E00092C0FF91EF91BF91AF919F918F917F91B7
:1007F0006F915F914F913F912F910F900FBE0F908E
:100800001F901895883109F486C0803251F7809383
:100810008E0114C0803409F49BC040F48033B9F3D6
:100820008833F9F680938E0185ECAEC0803509F4EB
:1008300083C0883509F494C0883499F60E94AA02CE
:10084000D0CF883909F48AC038F5883729F050F4B8
:10085000883611F0803729F683E080938F0110925B
:100860008D0155C0883809F479C0803919F0803875
:1008700009F0B7CF80918D01803208F06FC0E09110
:100880008D0181E08E0F80938D018091BB00F0E09F
:10089000E359FE4F80833BC0803B39F0D0F4803A6F
:1008A00009F477C0883A09F09CCF84E080938F01E7
:1008B00010926C0110926B01F0E0E0E009958091DC
:1008C0006B0181110FC081E080936B0110924B018D
:1008D00009C0803C09F4A8CF883C09F4A5CF883B27
:1008E00009F07FCFE0916C0181E08E0F80936C0165
:1008F000F0E0E55BFE4F80818093BB0090916C013E
:1009000080916B0129C08091B4018093BB0085EC7C
:100910008093BC0066CF9091B3018091B20198178B
:1009200058F5E091B30181E08E0F8093B301F0E0C0
:10093000EE56FE4F8081E9CFE091B30181E08E0F4A
:100940008093B3018091BB00F0E0EE56FE4F8083B0
:100950009091B3018091B2019817C8F285E8D8CF81
:10096000E091B30181E08E0F8093B3018091BB00D1
:10097000F0E0EE56FE4F80838091910181115ECFB1
:1009800081E08093900184EA8093BC0010928F01F3
:1009900028CF85EC8093BC0010928F0180918D014F
:1009A000803230F4E0918D01F0E0E359FE4F108287
:1009B00060918D0170E08DE691E0F0E0E0E0099556
:1009C00010928D010ECF10928E0138CFE4ECF1E041
:1009D0001382128288EE93E0A0E0B0E084839583D6
:1009E000A683B78384E091E09183808385EC90E0D7
:1009F0009587848784EC90E09787868780EC90E0E9
:100A0000918B808B81EC90E0938B828B82EC90E0D9
:100A1000958B848B86EC90E0978B868B118E128E53
:100A2000138E148E0895789484B5826084BD84B545
:100A3000816084BD85B5826085BD85B5816085BDD9
:100A400080916E00816080936E0010928100809191
:100A50008100826080938100809181008160809319
:100A60008100809180008160809380008091B1003E
:100A700084608093B1008091B00081608093B00069
:100A800080917A00846080937A0080917A008260FD
:100A900080937A0080917A00816080937A008091BF
:100AA0007A00806880937A001092C100E091D401AE
:100AB000F091D50182E08083E091D001F091D101E5
:100AC0001082E091D201F091D3018FEC80831092DB
:100AD000DC01E091D801F091D90186E08083E091BA
:100AE000D601F091D701808180618083E091D601A9
:100AF000F091D701808188608083E091D601F091E8
:100B0000D701808180688083E091D601F091D70180
:100B100080818F7D8083EEE9F0E02491EAE8F0E0C7
:100B200084918823C1F090E0880F991FFC01E85957
:100B3000FF4FC591D491FC01EE58FF4FA591B491A0
:100B40009FB7F8948881E22FE0958E2388838C915B
:100B5000E823EC939FBFEDE9F0E02491E9E8F0E0B1
:100B60008491882399F090E0880F991FFC01E8593F
:100B7000FF4FA591B491FC01EE58FF4F85919491E0
:100B80008FB7F894EC91E22BEC938FBF10E4C0E0A8
:100B9000D0E01092B7011092B8011092B9011092F2
:100BA000BA0110937C0080917A00806480937A006F
:100BB00080917A0086FDFCCFE0907800F09079007B
:100BC000B7010F2C000C880B990B0E94E90760936A
:100BD000B7017093B8018093B9019093BA012FEFD8
:100BE00030E0D7010E9410092FEF33E040E050E0E1
:100BF0000E94F60649015A01622F8DE00E9487008B
:100C000082E191E00E945902C090B701D090B801F2
:100C1000E090B901F090BA01A7019601C701B601B1
:100C20000E940B09882309F44FC081E291E00E94E1
:100C300059028DE291E00E9459024AE0C501B401D7
:100C4000B7FE0DC06DE284EC91E00E94980166272A
:100C50007727CB01681979098A099B094AE00E9424
:100C6000660281E491E00E9459020E94D3004B0188
:100C70005C0184E6C82ED12CE12CF12C0E94D3001B
:100C8000681979098A099B09683E734081059105B5
:100C9000A8F321E0C21AD108E108F10888EE880E15
:100CA00083E0981EA11CB11CC114D104E104F1041D
:100CB00029F7209709F46DCF0E946201882309F477
:100CC00068CF0E94000065CF26013701E89477F8CD
:100CD0002FEF3FEF4FE75FE7C301B2010E940B091F
:100CE00081110DC02FEF3FEF4FE75FE7C301B20166
:100CF0000E94B30718161CF485E291E098CF2FEFFD
:100D00003FEF4FE75FE4C701B6010E94990818164C
:100D10001CF489E291E08BCF2FEF3FEF4FE75FECC0
:100D2000C701B6010E94B30787FDF3CF20E030E092
:100D3000A901C701B6010E94B30787FF09C06DE290
:100D400084EC91E00E949801F7FAF094F7F8F0949F
:100D50002AE037ED43EA5BE3C701B6010E9447078B
:100D60002B013C010E94B8076B017C010E94E70740
:100D70009B01AC01C301B2010E9446072B013C015B
:100D80004AE0C701B6010E9466026EE284EC91E07F
:100D90000E94980120E030E040E251E4C301B2013A
:100DA0000E949E082B013C010E94B8076B01F12CA8
:100DB000E12C4AE0C701B6010E946602C701B601F4
:100DC0000E94E7079B01AC01C301B2010E944607E4
:100DD00020E030E040E251E40E949E080E94B80703
:100DE00090E080E04AE00E94660223CF052E97FB48
:100DF0001EF400940E940D0757FD07D00E941507AE
:100E000007FC03D04EF40C940D0750954095309597
:100E100021953F4F4F4F5F4F089590958095709566
:100E200061957F4F8F4F9F4F0895A1E21A2EAA1B05
:100E3000BB1BFD010DC0AA1FBB1FEE1FFF1FA2178A
:100E4000B307E407F50720F0A21BB30BE40BF50B87
:100E5000661F771F881F991F1A9469F76095709510
:100E6000809590959B01AC01BD01CF010895A29F93
:100E7000B001B39FC001A39F700D811D1124911D6E
:100E8000B29F700D811D1124911D08955058BB27EC
:100E9000AA270E945E070C945F080E94510838F050
:100EA0000E94580820F039F49F3F19F426F40C945E
:100EB0004E080EF4E095E7FB0C944808E92F0E94D9
:100EC000700858F3BA17620773078407950720F074
:100ED00079F4A6F50C9492080EF4E0950B2EBA2F37
:100EE000A02D0B01B90190010C01CA01A001112430
:100EF000FF27591B99F0593F50F4503E68F11A16DC
:100F0000F040A22F232F342F4427585FF3CF46956C
:100F100037952795A795F0405395C9F77EF41F168E
:100F2000BA0B620B730B840BBAF09150A1F0FF0F58
:100F3000BB1F661F771F881FC2F70EC0BA0F621F44
:100F4000731F841F48F4879577956795B795F79534
:100F50009E3F08F0B0CF9395880F08F09927EE0FC9
:100F60009795879508950E94240808F481E00895D4
:100F70000E94780888F09F5798F0B92F9927B751A9
:100F8000B0F0E1F0660F771F881F991F1AF0BA952D
:100F9000C9F714C0B13091F00E949208B1E00895F1
:100FA0000C949208672F782F8827B85F39F0B93FE3
:100FB000CCF3869577956795B395D9F73EF49095E0
:100FC0008095709561957F4F8F4F9F4F0895E8945E
:100FD00009C097FB3EF490958095709561957F4F81
:100FE0008F4F9F4F9923A9F0F92F96E9BB2793952F
:100FF000F695879577956795B795F111F8CFFAF43F
:10100000BB0F11F460FF1BC06F5F7F4F8F4F9F4F6F
:1010100016C0882311F096E911C0772321F09EE8CD
:10102000872F762F05C0662371F096E8862F70E033
:1010300060E02AF09A95660F771F881FDAF7880F0D
:101040009695879597F90895990F0008550FAA0B63
:10105000E0E8FEEF16161706E807F907C0F01216CB
:101060001306E407F50798F0621B730B840B950BCE
:1010700039F40A2661F0232B242B252B21F4089523
:101080000A2609F4A140A6958FEF811D811D0895C0
:1010900097F99F6780E870E060E008959FEF80EC2B
:1010A000089500240A9416161706180609060895CE
:1010B00000240A9412161306140605060895092E34
:1010C0000394000C11F4882352F0BB0F40F4BF2BA3
:1010D00011F460FF04C06F5F7F4F8F4F9F4F0895E3
:1010E00057FD9058440F551F59F05F3F71F04795D9
:1010F000880F97FB991F61F09F3F79F087950895BE
:10110000121613061406551FF2CF4695F1DF08C0DC
:10111000161617061806991FF1CF869571056105F9
:1011200008940895E894BB2766277727CB0197F9A1
:1011300008950E94240808F48FEF08950E94B108D2
:101140000C945F080E94510838F00E94580820F063
:10115000952311F00C9448080C944E0811240C941B
:1011600093080E94700870F3959FC1F3950F50E0AB
:10117000551F629FF001729FBB27F00DB11D639F49
:10118000AA27F00DB11DAA1F649F6627B00DA11DEF
:10119000661F829F2227B00DA11D621F739FB00D95
:1011A000A11D621F839FA00D611D221F749F332705
:1011B000A00D611D231F849F600D211D822F762F9E
:1011C0006A2F11249F5750409AF0F1F088234AF07B
:1011D000EE0FFF1FBB1F661F771F881F91505040E7
:1011E000A9F79E3F510580F00C9448080C94930891
:1011F0005F3FE4F3983ED4F3869577956795B7956E
:10120000F795E7959F5FC1F7FE2B880F911D969587
:10121000879597F908950E942408880B990B0895E3
:101220000E943707B7FF0895821B930B0895EE0FB6
:10123000FF1F0590F491E02D0994F894FFCF000072
:1012400000009801F8002501E5015601340148012C
:1012500053656E736F722056616C75653A20006E2F
:10126000616E00696E66006F766600207C204C45DA
:1012700044204272696768746E6573733A20000D8A
:021280000A0062
:107E0000112484B714BE81FFF0D085E080938100F7
:107E100082E08093C00088E18093C10086E0809377
:107E2000C20080E18093C4008EE0C9D0259A86E02C
:107E300020E33CEF91E0309385002093840096BBD3
:107E4000B09BFECF1D9AA8958150A9F7CC24DD24C4
:107E500088248394B5E0AB2EA1E19A2EF3E0BF2EE7
:107E6000A2D0813461F49FD0082FAFD0023811F036
:107E7000013811F484E001C083E08DD089C08234E0
:107E800011F484E103C0853419F485E0A6D080C0E4
:107E9000853579F488D0E82EFF2485D0082F10E0AE
:107EA000102F00270E291F29000F111F8ED06801E7
:107EB0006FC0863521F484E090D080E0DECF843638
:107EC00009F040C070D06FD0082F6DD080E0C81688
:107ED00080E7D80618F4F601B7BEE895C0E0D1E017
:107EE00062D089930C17E1F7F0E0CF16F0E7DF06D8
:107EF00018F0F601B7BEE89568D007B600FCFDCFD4
:107F0000A601A0E0B1E02C9130E011968C91119780
:107F100090E0982F8827822B932B1296FA010C0160
:107F200087BEE89511244E5F5F4FF1E0A038BF0790
:107F300051F7F601A7BEE89507B600FCFDCF97BE46
:107F4000E89526C08437B1F42ED02DD0F82E2BD052
:107F50003CD0F601EF2C8F010F5F1F4F84911BD097
:107F6000EA94F801C1F70894C11CD11CFA94CF0C13
:107F7000D11C0EC0853739F428D08EE10CD085E9AC
:107F80000AD08FE07ACF813511F488E018D01DD067
:107F900080E101D065CF982F8091C00085FFFCCF94
:107FA0009093C60008958091C00087FFFCCF809118
:107FB000C00084FD01C0A8958091C6000895E0E648
:107FC000F0E098E1908380830895EDDF803219F02E
:107FD00088E0F5DFFFCF84E1DECF1F93182FE3DFCA
:107FE0001150E9F7F2DF1F91089580E0E8DFEE27F6
:047FF000FF270994CA
:027FFE00040479
:00000001FF
