:020000040000FA
:100000000C9462000C948A000C948A000C94F50401
:100010000C94F5040C94F5040C948A000C948A005A
:100020000C948A000C948A000C948A000C948A0028
:100030000C948A000C948A000C948A000C948A0018
:100040000C9453040C948A000C94C3040C949D04E7
:100050000C948A000C948A000C948A000C948A00F8
:100060000C94FF040C948A00000000002400270078
:100070002A0000000000250028002B0000000000DE
:1000800023002600290004040404040404040202DA
:100090000202020203030303030301020408102007
:1000A0004080010204081020010204081020000012
:1000B0000008000201000003040700000000000027
:1000C00000001A0611241FBECFEFD8E0DEBFCDBF5F
:1000D00011E0A0E0B1E0E6E2F3E102C005900D928C
:1000E000A637B107D9F722E0A6E7B1E001C01D921B
:1000F000AB39B207E1F710E0C2E6D0E004C02197C7
:10010000FE010E948B09C136D107C9F70E9447063C
:100110000C9491090C940000833081F028F4813014
:1001200099F08230A9F008958730A9F08830C9F09D
:100130008430B1F4809180008F7D03C08091800075
:100140008F7780938000089584B58F7784BD08955C
:1001500084B58F7DFBCF8091B0008F778093B00006
:1001600008958091B0008F7DF9CFCF93DF93282F32
:1001700030E0F901E255FF4F8491F901E656FF4F57
:10018000D491F901EA57FF4FC491CC23A1F081111A
:100190000E948C00EC2FF0E0EE0FFF1FE458FF4FA1
:1001A000A591B491EC91ED2381E090E009F480E019
:1001B000DF91CF91089580E090E0FACF1F93CF9325
:1001C000DF93282F30E0F901E255FF4F8491F901C8
:1001D000E656FF4FD491F901EA57FF4FC491CC2363
:1001E000A9F0162F81110E948C00EC2FF0E0EE0F89
:1001F000FF1FEE58FF4FA591B4918FB7F894EC9183
:10020000111108C0D095DE23DC938FBFDF91CF9111
:100210001F910895DE2BF8CFCF93DF9390E0FC0180
:10022000E656FF4F24918A579F4FFC018491882303
:10023000D1F090E0880F991FFC01E859FF4FA5917C
:10024000B491FC01EE58FF4FC591D49161110EC0DD
:100250009FB7F8948C91E22FE0958E238C932881A0
:10026000E223E8839FBFDF91CF9108958FB7F89481
:10027000EC91E22BEC938FBFF6CF3FB7F8948091CF
:10028000FA019091FB01A091FC01B091FD0126B50E
:10029000A89B05C02F3F19F00196A11DB11D3FBFBE
:1002A000BA2FA92F982F8827BC01CD01620F711D8D
:1002B000811D911D42E0660F771F881F991F4A9587
:1002C000D1F70895AF92BF92CF92DF92EF92FF9253
:1002D0000F931F93CF93DF936C017B018B01040F6E
:1002E000151FEB015E01AE18BF08C017D10759F00A
:1002F0006991D601ED91FC910190F081E02DC6014C
:100300000995892B79F7C501DF91CF911F910F9145
:10031000FF90EF90DF90CF90BF90AF900895FC01D9
:10032000538D448D252F30E0842F90E0821B930B5A
:10033000541710F0CF96089501970895FC01918D00
:10034000828D981761F0A28DAE0FBF2FB11D5D9603
:100350008C91928D9F5F9F73928F90E008958FEFA5
:100360009FEF0895FC01918D828D981731F0828D59
:10037000E80FF11D858D90E008958FEF9FEF0895B0
:10038000FC01918D228D892F90E0805C9F4F821B14
:1003900091098F73992708958EEF91E00E94C00113
:1003A00021E0892B09F420E0822F089580E090E07D
:1003B000892B29F00E94CC0181110C940000089532
:1003C000FC01A48DA80FB92FB11DA35ABF4F2C91CA
:1003D000848D90E001968F739927848FA689B789C1
:1003E0002C93A089B1898C91837080648C93938DB8
:1003F000848D981306C00288F389E02D80818F7D5B
:1004000080830895EF92FF920F931F93CF93DF9312
:10041000EC0181E0888F9B8D8C8D98131AC0E88940
:10042000F989808185FF15C09FB7F894EE89FF890F
:100430006083E889F98980818370806480839FBFAD
:1004400081E090E0DF91CF911F910F91FF90EF90AD
:100450000895F62E0B8D10E00F5F1F4F0F731127BD
:10046000E02E8C8D8E110CC00FB607FCFACFE889F8
:10047000F989808185FFF5CFCE010E94E001F1CF9F
:10048000EB8DEC0FFD2FF11DE35AFF4FF0829FB76C
:10049000F8940B8FEA89FB8980818062CFCFCF935C
:1004A000DF93EC01888D8823B9F0AA89BB89E8899C
:1004B000F9898C9185FD03C0808186FD0DC00FB642
:1004C00007FCF7CF8C9185FFF2CF808185FFEDCFC0
:1004D000CE010E94E001E9CFDF91CF9108952091F4
:1004E0009D01260F3327331F21323105ECF4209173
:1004F000C101FC0190E080E0243069F082E00895C1
:10050000A0919D012191AC0143585E4FA40FB52FDE
:10051000B11D2C930196861798F380919D01680F69
:1005200060939D0180E0089581E0089508958FEF24
:100530009FEF08958FEF9FEF08958091760190E0EF
:100540009195819591090895CF93DF93CB01EA01AD
:10055000642F0E946F02CE01DF91CF910895CF9357
:10056000DF931F92CDB7DEB7698361E0CE010196BC
:100570000E946F0281E090E00F90DF91CF9108958B
:1005800090E080E00895FC0101900020E9F73197A8
:10059000AF01481B590BBC018EEF91E00C94620136
:1005A0008F929F92AF92BF920F931F93CF93DF933F
:1005B000CDB7DEB7A1970FB6F894DEBF0FBECDBFA3
:1005C00019A2423008F44AE08E010F5D1F4F842EBD
:1005D000912CB12CA12CA50194010E946909E62F50
:1005E000B901CA01EA30F4F4E05DD801EE938D015F
:1005F000232B242B252B79F790E080E0109719F01E
:10060000CD010E94C302A1960FB6F894DEBF0FBEC3
:10061000CDBFDF91CF911F910F91BF90AF909F9071
:100620008F900895E95CE1CF4F925F926F927F9235
:100630008F929F92AF92BF92CF92DF92EF92FF92F2
:100640006B017C01AC019B010E9464098823C1F00D
:1006500082E191E00E94C3027C018EE191E00E9460
:10066000C3028E0D9F1DFF90EF90DF90CF90BF9043
:10067000AF909F908F907F906F905F904F90089574
:1006800046015701E894B7F82FEF3FEF4FE75FE7D8
:10069000C501B4010E94640981110DC02FEF3FEF25
:1006A0004FE75FE7C501B4010E940C0818161CF45F
:1006B00086E191E0CFCF2FEF3FEF4FE75FE4C70137
:1006C000B6010E94F20818161CF48AE191E0C2CF2C
:1006D0002FEF3FEF4FE75FECC701B6010E940C0818
:1006E00087FDF3CF20E030E0A901C701B6010E94E9
:1006F0000C08B12CA12C87FF0AC06DE28EEF91E0AF
:100700000E9402025C01F7FAF094F7F8F0942AE0F4
:1007100037ED43EA5BE3C701B6010E94A0072B0156
:100720003C010E9411086B017C010E9440089B0162
:10073000AC01C301B2010E949F072B013C014AE0BA
:10074000C701B6010E94D0027C01EA0CFB1C6EE2DC
:100750008EEF91E00E940202E80EF91E20E030E0E8
:1007600040E251E4C301B2010E94F7082B013C01B1
:100770000E9411084B01B12CA12C4AE0C501B40123
:100780000E94D002E80EF91EC501B4010E94400883
:100790009B01AC01C301B2010E949F0720E030E041
:1007A00040E251E40E94F7080E94110890E080E0C6
:1007B0004AE00E94D002E80EF91E4FCF1F93CF935C
:1007C000DF9385ED8093BC008091790190917A014F
:1007D000A0917B01B0917C010796A11DB11D23E082
:1007E000B695A795979587952A95D1F72091BC0046
:1007F00024FD03C01092C10152C040917901509173
:100800007A0160917B0170917C01452B462B472B2F
:1008100069F30097A105B10541F02AE22A95F1F7A5
:1008200000C00197A109B109E1CF80917801C1E031
:10083000C0937701882399F1D091B8001091BA0044
:100840008091BC008A7B8093BC0060E082E10E94C2
:10085000DE0060E083E10E94DE001092C101C093DF
:10086000C3011092C20161E082E10E94DE0061E0FA
:1008700083E10E94DE008091B9008E7F8093B900F1
:100880008091B9008D7F8093B90088E48093B8008F
:1008900085E48093BC001093BA00D093B800DF9138
:1008A000CF911F9108951F920F920FB60F921124AE
:1008B0002F933F938F939F93AF93BF938091F601B4
:1008C0009091F701A091F801B091F9013091F501F3
:1008D00023E0230F2D3758F50196A11DB11D20935C
:1008E000F5018093F6019093F701A093F801B0937E
:1008F000F9018091FA019091FB01A091FC01B09166
:10090000FD010196A11DB11D8093FA019093FB0199
:10091000A093FC01B093FD01BF91AF919F918F9186
:100920003F912F910F900FBE0F901F90189526E8C2
:10093000230F0296A11DB11DD2CF1F920F920FB6A9
:100940000F9211242F933F934F935F936F937F9355
:100950008F939F93AF93BF93EF93FF938EEF91E0AD
:100960000E94E001FF91EF91BF91AF919F918F9114
:100970007F916F915F914F913F912F910F900FBE9B
:100980000F901F9018951F920F920FB60F9211247F
:100990002F938F939F93EF93FF93E0910E02F0912B
:1009A0000F028081E0911402F091150282FD1BC0BC
:1009B0009081809117028F5F8F73209118028217A8
:1009C00041F0E0911702F0E0E250FE4F958F8093E6
:1009D0001702FF91EF919F918F912F910F900FBE72
:1009E0000F901F9018958081F4CF1F920F920FB631
:1009F0000F9211240F900FBE0F901F9018951F9209
:100A00000F920FB60F9211242F933F934F935F9342
:100A10006F937F938F939F93AF93BF93EF93FF93C6
:100A20008091B900887F803609F44AC0F0F5883299
:100A300009F4A5C018F5803109F499C0B8F48823E9
:100A400009F4F5C0883009F492C0FF91EF91BF918D
:100A5000AF919F918F917F916F915F914F913F9156
:100A60002F910F900FBE0F901F901895883109F4A9
:100A700086C0803251F78093C00114C0803409F4DD
:100A80009BC040F48033B9F38833F9F68093C001FA
:100A900085ECAEC0803509F483C0883509F494C074
:100AA000883499F60E94DE03D0CF883909F48AC0D1
:100AB00038F5883729F050F4883611F0803729F658
:100AC00083E08093C1011092BF0155C0883809F4BA
:100AD00079C0803919F0803809F0B7CF8091BF0113
:100AE000803208F06FC0E091BF0181E08E0F8093EB
:100AF000BF018091BB00F0E0E156FE4F80833BC018
:100B0000803B39F0D0F4803A09F477C0883A09F094
:100B10009CCF84E08093C10110929E0110929D01B0
:100B2000F0E0E0E0099580919D0181110FC081E026
:100B300080939D0110927D0109C0803C09F4A8CFEB
:100B4000883C09F4A5CF883B09F07FCFE0919E0156
:100B500081E08E0F80939E01F0E0E358FE4F80818C
:100B60008093BB0090919E0180919D0129C080914E
:100B7000E6018093BB0085EC8093BC0066CF90912A
:100B8000E5018091E401981758F5E091E50181E0D5
:100B90008E0F8093E501F0E0EC53FE4F8081E9CFAA
:100BA000E091E50181E08E0F8093E5018091BB002B
:100BB000F0E0EC53FE4F80839091E5018091E401D9
:100BC0009817C8F285E8D8CFE091E50181E08E0F53
:100BD0008093E5018091BB00F0E0EC53FE4F8083F1
:100BE0008091C30181115ECF81E08093C20184EACC
:100BF0008093BC001092C10128CF85EC8093BC008B
:100C00001092C1018091BF01803230F4E091BF01A8
:100C1000F0E0E156FE4F10826091BF0170E08FE975
:100C200091E0F0E0E0E009951092BF010ECF109244
:100C3000C00138CFEEEFF1E01382128288EE93E02C
:100C4000A0E0B0E084839583A683B78384E091E03D
:100C50009183808385EC90E09587848784EC90E095
:100C60009787868780EC90E0918B808B81EC90E079
:100C7000938B828B82EC90E0958B848B86EC90E05A
:100C8000978B868B118E128E138E148E0895789406
:100C900084B5826084BD84B5816084BD85B5826081
:100CA00085BD85B5816085BD80916E008160809332
:100CB0006E0010928100809181008260809381009B
:100CC00080918100816080938100809180008160AB
:100CD000809380008091B10084608093B100809106
:100CE000B00081608093B00080917A00846080932E
:100CF0007A0080917A00826080937A0080917A00F5
:100D0000816080937A0080917A00806880937A0075
:100D10001092C100E0910E02F0910F0282E08083F8
:100D2000E0910A02F0910B021082E0910C02F09126
:100D30000D028FEC808310921602E0911202F09166
:100D4000130286E08083E0911002F091110280810D
:100D500080618083E0911002F091110280818860AF
:100D60008083E0911002F09111028081806880837D
:100D7000E0911002F091110280818F7D808360E00C
:100D80008EE00E940C0160E082E00E940C0160E0B5
:100D900083E10E940C0161E08DE00E940C0110E4EF
:100DA000C0E0D0E010937C0080917A008064809352
:100DB0007A0080917A0086FDFCCF60917800709176
:100DC0007900072E000C880B990B0E9442082AE03C
:100DD00038E240EA5BE30E94F7086093F101709308
:100DE000F2018093F3019093F40182E00E94B50038
:100DF000BC01990F880B990B0E9442086093ED018A
:100E00007093EE018093EF019093F00183E10E94D3
:100E1000B500BC01990F880B990B0E9442086093A2
:100E2000E9017093EA018093EB019093EC0181E278
:100E300091E00E94C3026091E9017091EA01809102
:100E4000EB019091EC010E94140320E030E040E8B7
:100E50005FE36091E9017091EA018091EB0190916B
:100E6000EC010E940C0881112BC020E030E040E82A
:100E70005FE36091ED017091EE018091EF0190913F
:100E8000F0010E940C0881114AC084E391E00E94A5
:100E9000C3026091F1017091F2018091F301909190
:100EA000F4010E9414036091F1017091F2018091AC
:100EB000F3019091F4010E9411088DE00E94DE0080
:100EC0000E943D014B015C0184E6C82ED12CE12C2F
:100ED000F12C0E943D01681979098A099B09683E35
:100EE000734081059105A8F321E0C21AD108E108F9
:100EF000F10888EE880E83E0981EA11CB11CC11475
:100F0000D104E104F10429F7209709F44BCF0E94A2
:100F1000CC01882309F446CF0E94000043CF85E529
:100F200091E00E94C3026091F1017091F201809101
:100F3000F3019091F40190580E941403C1CF5058CE
:100F4000BB27AA270E94B7070C94B8080E94AA08DA
:100F500038F00E94B10820F039F49F3F19F426F4CC
:100F60000C94A7080EF4E095E7FB0C94A108E92F78
:100F70000E94C90858F3BA176207730784079507D8
:100F800020F079F4A6F50C94EB080EF4E0950B2E06
:100F9000BA2FA02D0B01B90190010C01CA01A001CB
:100FA0001124FF27591B99F0593F50F4503E68F126
:100FB0001A16F040A22F232F342F4427585FF3CF67
:100FC000469537952795A795F0405395C9F77EF438
:100FD0001F16BA0B620B730B840BBAF09150A1F081
:100FE000FF0FBB1F661F771F881FC2F70EC0BA0F07
:100FF000621F731F841F48F4879577956795B7958F
:10100000F7959E3F08F0B0CF9395880F08F0992789
:10101000EE0F9795879508950E947D0808F481E06A
:1010200008950E94D10888F09F5798F0B92F99270A
:10103000B751B0F0E1F0660F771F881F991F1AF0C3
:10104000BA95C9F714C0B13091F00E94EB08B1E035
:1010500008950C94EB08672F782F8827B85F39F034
:10106000B93FCCF3869577956795B395D9F73EF45C
:1010700090958095709561957F4F8F4F9F4F089504
:10108000E89409C097FB3EF4909580957095619522
:101090007F4F8F4F9F4F9923A9F0F92F96E9BB27D8
:1010A0009395F695879577956795B795F111F8CF54
:1010B000FAF4BB0F11F460FF1BC06F5F7F4F8F4FBF
:1010C0009F4F16C0882311F096E911C0772321F0B5
:1010D0009EE8872F762F05C0662371F096E8862F4D
:1010E00070E060E02AF09A95660F771F881FDAF7A4
:1010F000880F9695879597F90895990F0008550FD1
:10110000AA0BE0E8FEEF16161706E807F907C0F08D
:1011100012161306E407F50798F0621B730B840B95
:10112000950B39F40A2661F0232B242B252B21F46F
:1011300008950A2609F4A140A6958FEF811D811D0F
:10114000089597F99F6780E870E060E008959FEF49
:1011500080EC089500240A9416161706180609064E
:10116000089500240A94121613061406050608951D
:10117000092E0394000C11F4882352F0BB0F40F4A5
:10118000BF2B11F460FF04C06F5F7F4F8F4F9F4FE5
:10119000089557FD9058440F551F59F05F3F71F067
:1011A0004795880F97FB991F61F09F3F79F08795CE
:1011B0000895121613061406551FF2CF4695F1DF57
:1011C00008C0161617061806991FF1CF86957105E7
:1011D000610508940895E894BB2766277727CB011B
:1011E00097F908950E947D0808F48FEF08950E94F2
:1011F0000A090C94B8080E94AA0838F00E94B108A5
:1012000020F0952311F00C94A1080C94A708112448
:101210000C94EC080E94C90870F3959FC1F3950FD8
:1012200050E0551F629FF001729FBB27F00DB11D6A
:10123000639FAA27F00DB11DAA1F649F6627B00DFA
:10124000A11D661F829F2227B00DA11D621F739FE3
:10125000B00DA11D621F839FA00D611D221F749FF1
:101260003327A00D611D231F849F600D211D822F38
:10127000762F6A2F11249F5750409AF0F1F088235F
:101280004AF0EE0FFF1FBB1F661F771F881F91508C
:101290005040A9F79E3F510580F00C94A1080C9492
:1012A000EC085F3FE4F3983ED4F386957795679515
:1012B000B795F795E7959F5FC1F7FE2B880F911DB6
:1012C0009695879597F908950E947D08880B990B4C
:1012D0000895A1E21A2EAA1BBB1BFD010DC0AA1F77
:1012E000BB1FEE1FFF1FA217B307E407F50720F08F
:1012F000A21BB30BE40BF50B661F771F881F991F0A
:101300001A9469F760957095809590959B01AC0152
:10131000BD01CF010895EE0FFF1F0590F491E02D60
:101320000994F894FFCF00000000020262018F01CF
:101330004F02C0019E01B2016E616E00696E6600CF
:101340006F7666000D0A0056616C6F722064656CE2
:10135000207377697463683A200056616C6F72205D
:10136000706F73697469766F206465206C61207397
:1013700065C3B1616C2044433A200056616C6F72C2
:10138000206E6567617469766F206465206C6120EA
:0C1390007365C3B1616C2044433A200037
:107E0000112484B714BE81FFF0D085E080938100F7
:107E100082E08093C00088E18093C10086E0809377
:107E2000C20080E18093C4008EE0C9D0259A86E02C
:107E300020E33CEF91E0309385002093840096BBD3
:107E4000B09BFECF1D9AA8958150A9F7CC24DD24C4
:107E500088248394B5E0AB2EA1E19A2EF3E0BF2EE7
:107E6000A2D0813461F49FD0082FAFD0023811F036
:107E7000013811F484E001C083E08DD089C08234E0
:107E800011F484E103C0853419F485E0A6D080C0E4
:107E9000853579F488D0E82EFF2485D0082F10E0AE
:107EA000102F00270E291F29000F111F8ED06801E7
:107EB0006FC0863521F484E090D080E0DECF843638
:107EC00009F040C070D06FD0082F6DD080E0C81688
:107ED00080E7D80618F4F601B7BEE895C0E0D1E017
:107EE00062D089930C17E1F7F0E0CF16F0E7DF06D8
:107EF00018F0F601B7BEE89568D007B600FCFDCFD4
:107F0000A601A0E0B1E02C9130E011968C91119780
:107F100090E0982F8827822B932B1296FA010C0160
:107F200087BEE89511244E5F5F4FF1E0A038BF0790
:107F300051F7F601A7BEE89507B600FCFDCF97BE46
:107F4000E89526C08437B1F42ED02DD0F82E2BD052
:107F50003CD0F601EF2C8F010F5F1F4F84911BD097
:107F6000EA94F801C1F70894C11CD11CFA94CF0C13
:107F7000D11C0EC0853739F428D08EE10CD085E9AC
:107F80000AD08FE07ACF813511F488E018D01DD067
:107F900080E101D065CF982F8091C00085FFFCCF94
:107FA0009093C60008958091C00087FFFCCF809118
:107FB000C00084FD01C0A8958091C6000895E0E648
:107FC000F0E098E1908380830895EDDF803219F02E
:107FD00088E0F5DFFFCF84E1DECF1F93182FE3DFCA
:107FE0001150E9F7F2DF1F91089580E0E8DFEE27F6
:047FF000FF270994CA
:027FFE00040479
:00000001FF
