:100000000C94E3020C940B030C940B030C94B910A6
:100010000C94B9100C94B9100C940B030C940B03B2
:100020000C940B030C940B030C940B030C940B0318
:100030000C940B030C940B030C940B030C940B0308
:100040000C9417100C940B030C9487100C946110F3
:100050000C940B030C940B030C940B030C940B03E8
:100060000C9431110C940B0300000000003E5B4F18
:100070005B3E3E6B4F6B3E1C3E7C3E1C183C7E3C08
:10008000181C577D571C1C5E7F5E1C00183C180016
:10009000FFE7C3E7FF0018241800FFE7DBE7FF30A6
:1000A000483A060E2629792926407F050507407F14
:1000B00005253F5A3CE73C5A7F3E1C1C08081C1C87
:1000C0003E7F14227F22145F5F005F5F06097F017D
:1000D0007F006689956A606060606094A2FFA29468
:1000E00008047E040810207E201008082A1C080836
:1000F0001C2A08081E101010100C1E0C1E0C303884
:100100003E3830060E3E0E06000000000000005F84
:1001100000000007000700147F147F14242A7F2AA0
:100120001223130864623649562050000807030062
:10013000001C2241000041221C002A1C7F1C2A08AE
:10014000083E080800807030000808080808000011
:1001500060600020100804023E5149453E00427F85
:10016000400072494949462141494D331814127FD4
:100170001027454545393C4A494931412111090774
:100180003649494936464949291E000014000000F5
:1001900040340000000814224114141414140041C7
:1001A00022140802015909063E415D594E7C121184
:1001B000127C7F494949363E414141227F414141BC
:1001C0003E7F494949417F090909013E4141517337
:1001D0007F0808087F00417F41002040413F017FA8
:1001E000081422417F404040407F021C027F7F0470
:1001F00008107F3E4141413E7F090909063E4151B9
:10020000215E7F09192946264949493203017F01A8
:10021000033F4040403F1F2040201F3F4038403FA9
:10022000631408146303047804036159494D4300BF
:100230007F4141410204081020004141417F0402F6
:10024000010204404040404000030708002054548D
:1002500078407F284444383844444428384444286B
:100260007F385454541800087E090218A4A49C78BE
:100270007F0804047800447D40002040403D007F1A
:100280001028440000417F40007C047804787C08FA
:100290000404783844444438FC18242418182424CE
:1002A00018FC7C08040408485454542404043F44B3
:1002B000243C4040207C1C2040201C3C4030403CE2
:1002C00044281028444C9090907C4464544C440042
:1002D00008364100000077000000413608000201A6
:1002E0000204023C2623263C1EA1A161123A404092
:1002F000207A38545455592155557941225454780F
:1003000042215554784020545579400C1E527212A7
:100310003955555559395454545939555454580030
:1003200000457C410002457D420001457C407D1234
:1003300011127DF0282528F07C5455450020545496
:100340007C547C0A097F4932494949323A44444441
:100350003A324A4848303A4141217A3A424020787C
:10036000009DA0A07D3D4242423D3D4040403D3C7D
:1003700024FF2424487E4943662B2FFC2F2BFF09A2
:1003800029F620C0887E0903205454794100004496
:100390007D413048484A32384040227A007A0A0A81
:1003A000727D0D19317D2629292F282629292926F4
:1003B00030484D4020380808080808080808382F39
:1003C00010C8ACBA2F102834FA00007B00000814C3
:1003D0002A142222142A14085500550055AA55AA99
:1003E00055AAFF55FF55FF000000FF00101010FF39
:1003F00000141414FF001010FF00FF1010F010F094
:10040000141414FC001414F700FF0000FF00FF1484
:1004100014F404FC141417101F10101F101F1414D0
:10042000141F00101010F0000000001F101010101A
:100430001F10101010F010000000FF10101010100E
:1004400010101010FF10000000FF140000FF00FF4C
:1004500000001F10170000FC04F4141417101714E8
:1004600014F404F40000FF00F7141414141414140A
:10047000F700F7141414171410101F101F1414147D
:10048000F4141010F010F000001F101F0000001FE7
:1004900014000000FC140000F010F01010FF10FF1A
:1004A000141414FF141010101F00000000F010FFAF
:1004B000FFFFFFFFF0F0F0F0F0FFFFFF0000000093
:1004C00000FFFF0F0F0F0F0F3844443844FC4A4A17
:1004D0004A347E02020606027E027E0263554941CC
:1004E000633844443C04407E201E2006027E020203
:1004F00099A5E7A5991C2A492A1C4C7201724C3017
:100500004A4D4D303048784830BC625A463D3E49ED
:100510004949007E0101017E2A2A2A2A2A44445F91
:10052000444440514A444040444A51400000FF0185
:1005300003E080FF000008086B6B08361236243693
:10054000060F090F060000181800000010100030F8
:1005500040FF0101001F01011E00191D1712003C80
:100560003C3C3C000000000000000000240027008C
:100570002A00000000080002010000030407000038
:1005800000000000000000000000230026002900F9
:10059000010204081020408001020408102001021A
:1005A0000408102000000000250028002B0004048F
:1005B000040404040404020202020202030303030B
:1005C00003034C12DC1911241FBECFEFD8E0DEBFAD
:1005D000CDBF13E0A0E0B1E0E6E7FBE302C0059089
:1005E0000D92A437B107D9F725E0A4E7B3E001C025
:1005F0001D92AE33B207E1F712E0C2EED2E004C0C2
:100600002197FE010E947E1CC13ED107C9F70E94BE
:10061000B8130C94AE1D0C940000FC0120812EBD7B
:100620000DB407FEFDCF2EB5FC0120830895833065
:1006300081F028F4813099F08230A9F00895873054
:10064000A9F08830C9F08430B1F4809180008F7DAA
:1006500003C0809180008F7780938000089584B5D7
:100660008F7784BD089584B58F7DFBCF8091B000D6
:100670008F778093B00008958091B0008F7DF9CF7F
:10068000CF93DF93282F30E0F901EE58FA4F849191
:10069000F901E057FA4FD491F901E255FA4FC491AC
:1006A000CC23A1F081110E941703EC2FF0E0EE0F94
:1006B000FF1FEA57FA4FA591B491EC91ED2381E029
:1006C00090E009F480E0DF91CF91089580E090E020
:1006D000FACF1F93CF93DF93282F30E0F901EE5824
:1006E000FA4F8491F901E057FA4FD491F901E2559C
:1006F000FA4FC491CC23A9F0162F81110E94170341
:10070000EC2FF0E0EE0FFF1FEC55FA4FA591B491DE
:100710008FB7F894EC91111108C0D095DE23DC93CB
:100720008FBFDF91CF911F910895DE2BF8CFCF932C
:10073000DF9390E0FC01E057FA4F249182559A4FE5
:10074000FC0184918823D1F090E0880F991FFC016F
:10075000E859FA4FA591B491FC01EC55FA4FC591B7
:10076000D49161110EC09FB7F8948C91E22FE0955F
:100770008E238C932881E223E8839FBFDF91CF9162
:1007800008958FB7F894EC91E22BEC938FBFF6CFDE
:100790008E3008F08E508770806480937C0080914A
:1007A0007A00806480937A0080917A0086FDFCCF85
:1007B000809178009091790008958230910538F009
:1007C000880F991F880F991F05970197F1F70895D2
:1007D0009F92AF92BF92CF92DF92EF92FF920F93D0
:1007E0001F93CF93DF93EC016B018885998511E00E
:1007F000892B09F010E8F601A0808A2D8123992425
:1008000093948111912C2C813D814E815F8160E216
:1008100071EA87E090E00E94481C022FB12CE22E82
:10082000F12C002319F0C7010E94DD038A85877F20
:1008300009F04FC08D858F3F89F09A2D912381E07B
:1008400009F480E0891551F0EF85F8898F899923A3
:10085000D1F19081892B808399249394E989FA8935
:100860008081998D892B8083002319F0C7010E9414
:10087000DD038E858F3F39F0EB89FC898081988D6F
:10088000892309F0B12AE989FA899081898D8095B7
:10089000892380838E858F3F11F0F601B082888591
:1008A0009985892B09F044C0110F1111BACFDF913E
:1008B000CF911F910F91FF90EF90DF90CF90BF905D
:1008C000AF909F9008959081809589238083912C8B
:1008D000C5CFE989FA898081998D892B808300238E
:1008E00019F0C7010E94DD038D858F3F49F0EF8528
:1008F000F8898F899A2D9123B9F09081892B808373
:10090000E989FA899081898D8095892380838E85F4
:100910008F3F09F4BFCFEB89FC898081988D8923B3
:1009200009F4B8CFB12AB6CF908180958923E7CF5B
:100930001695BBCFAF92BF92CF92DF92EF92FF920C
:100940000F931F93CF93DF931F92CDB7DEB78C0128
:100950005B016A01DC018D919C911197892B39F023
:100960001296ED91FC91908181819CBD8DBDF80125
:1009700083858F3F19F060E00E9469037501CA0CFE
:10098000DB1CCE14DF04A9F0D7018D917D01898392
:10099000F80180819181892B29F0CE0101960E9476
:1009A0000D03EFCFBE016F5F7F4FC8010E94E803C8
:1009B000E8CFD8011B968C918F3F19F061E00E941F
:1009C000690381E00F90DF91CF911F910F91FF900C
:1009D000EF90DF90CF90BF90AF9008953FB7F8941D
:1009E0008091530490915404A0915504B091560401
:1009F00026B5A89B05C02F3F19F00196A11DB11D7A
:100A00003FBFBA2FA92F982F8827BC01CD01620FB5
:100A1000711D811D911D42E0660F771F881F991F70
:100A20004A95D1F70895AF92BF92CF92DF92EF929D
:100A3000FF920F931F93CF93DF936C017B018B0188
:100A4000040F151FEB015E01AE18BF08C017D107D8
:100A500059F06991D601ED91FC910190F081E02D62
:100A6000C6010995892B79F7C501DF91CF911F91B7
:100A70000F91FF90EF90DF90CF90BF90AF900895CF
:100A8000FC01538D448D252F30E0842F90E0821B94
:100A9000930B541710F0CF96089501970895FC0119
:100AA000918D828D981761F0A28DAE0FBF2FB11D71
:100AB0005D968C91928D9F5F9F73928F90E00895C9
:100AC0008FEF9FEF0895FC01918D828D981731F083
:100AD000828DE80FF11D858D90E008958FEF9FEFD7
:100AE0000895FC01918D228D892F90E0805C9F4FAD
:100AF000821B91098F739927089587E594E00E94DE
:100B0000710521E0892B09F420E0822F089580E00F
:100B100090E0892B29F00E947D0581110C94000042
:100B20000895FC01A48DA80FB92FB11DA35ABF4F82
:100B30002C91848D90E001968F739927848FA689DC
:100B4000B7892C93A089B1898C91837080648C9330
:100B5000938D848D981306C00288F389E02D8081DF
:100B60008F7D80830895EF92FF920F931F93CF9311
:100B7000DF93EC0181E0888F9B8D8C8D98131AC0D8
:100B8000E889F989808185FF15C09FB7F894EE89BF
:100B9000FF896083E889F98980818370806480831C
:100BA0009FBF81E090E0DF91CF911F910F91FF9067
:100BB000EF900895F62E0B8D10E00F5F1F4F0F730F
:100BC0001127E02E8C8D8E110CC00FB607FCFACFCA
:100BD000E889F989808185FFF5CFCE010E949105D2
:100BE000F1CFEB8DEC0FFD2FF11DE35AFF4FF0829B
:100BF0009FB7F8940B8FEA89FB8980818062CFCF01
:100C0000CF93DF93EC01888D8823B9F0AA89BB8943
:100C1000E889F9898C9185FD03C0808186FD0DC02E
:100C20000FB607FCF7CF8C9185FFF2CF808185FF4F
:100C3000EDCFCE010E949105E9CFDF91CF910895CC
:100C400020912704309128042817390771F49091D6
:100C5000260480912504981741F0E0912604F0E0E5
:100C6000EB51FC4F808190E008958FEF9FEF089546
:100C70000895EF92FF920F931F93CF93DF93DC01C0
:100C80005C96ED90FC905D97E114F10479F481E0BD
:100C900090E013969C938E93129790E080E0DF9102
:100CA000CF911F910F91FF90EF9008955196ED9184
:100CB000FC91529750968C915097982F90950FB722
:100CC0005E962C915E97122F127021FD6095F8941C
:100CD0002081112319F1282B2083E7012197F1F7B7
:100CE00028E0462F50E0308160FF1AC0382B308357
:100CF000E7012197F1F7BA0175956795215089F7BA
:100D0000112381F08081892380830FBF5C968D91B0
:100D10009C910197F1F781E090E0C1CF2923DCCFCE
:100D20003923E5CF9081892BEFCF20912704309193
:100D300028042817390761F480912504209126049E
:100D400090E0805C9F4F821B91098F7399270895D3
:100D500090E080E00895209127043091280428171E
:100D60003907B9F49091260480912504981789F0E9
:100D7000E0912604F0E0EB51FC4F808120912604A5
:100D800030E02F5F3F4F2F7333272093260490E0EE
:100D900008958FEF9FEF089520919B03260F33272F
:100DA000331F21323105ECF42091BF03FC0190E0A8
:100DB00080E0243069F082E00895A0919B032191A6
:100DC000AC0145585C4FA40FB52FB11D2C93019673
:100DD000861798F380919B03680F60939B0380E0D4
:100DE000089581E008958FEF9FEF08958FEF9FEFB3
:100DF00008958091740390E09195819591090895EB
:100E0000CF93DF93CB01EA01642F0E94CC06CE0181
:100E1000DF91CF910895CF93DF931F92CDB7DEB7C7
:100E2000698361E0CE0101960E94CC0681E090E0EA
:100E30000F90DF91CF9108950895FC016370668B48
:100E40008481958126813781613039F0633029F0C2
:100E500091878087338722870895318720879387FA
:100E6000828708952F923F924F925F926F927F9266
:100E70008F929F92AF92BF92CF92DF92EF92FF92AA
:100E80000F931F93CF93DF93CDB7DEB76A970FB65B
:100E9000F894DEBF0FBECDBF9A8F898F7A836983A6
:100EA0004A01D22E18870F833701BC2CDC015996DA
:100EB0002D913C915A972115310509F015C11896CD
:100EC0008D919C911997681779070CF0D7C11A96E4
:100ED0008D919C91481759070CF0D0C14C2C512C86
:100EE000B6E0CB9E600D711D11247C876B871616B2
:100EF00017060CF0C3C1EA2DF0E0FA87E98793E00A
:100F0000EE0FFF1F9A95E1F7F88BEF87CF01840F63
:100F1000951F181619060CF0B1C1A98DBA8D5896F7
:100F20008C91811104C0BFEABD1508F4D394A98D3A
:100F3000BA8DED91FC9111970284F385E02DCD01DE
:100F40000995B5E0DB9EC0011124E981FA81FC839B
:100F5000EB83312C212C9C0128593F4F388F2F8B4C
:100F60004A2D50E05E8B4D8BEF89F88DE20DF31D1D
:100F700044919E828D82D12CC12C69817A81620D2F
:100F8000731D7A8B698B842F90E09C8B8B8BE98D02
:100F9000FA8DA081B18140FF82C0F1E0BF126FC025
:100FA000AF126DC01C96ED91FC912F813885A40184
:100FB0004C0D5D1D69897A89898D9A8D0995EB891A
:100FC000FC89F595E7954E2F5FEFC51AD50A6D811F
:100FD0007E818D899E89680F791F7E836D8398E05D
:100FE000C916D10481F6AFEF2A1A3A0AEB81FC81C7
:100FF000E40DF51DFC83EB83F5E02F16310409F0B9
:10100000B3CF2F81388526153705B9F0A98DBA8D54
:10101000ED91FC91B1E0BB1257C0AB1255C0698194
:101020007A816B5F7F4F0088F189E02D830128E092
:1010300030E0A401898D9A8D0995A98DBA8DED9125
:10104000FC9111970688F789E02DCD016A960FB6BD
:10105000F894DEBF0FBECDBFDF91CF911F910F91EE
:10106000FF90EF90DF90CF90BF90AF909F908F90C8
:101070007F906F905F904F903F902F9009941E96B5
:10108000ED91FC91EF80F88409851A8592014D81DC
:101090005E816B817C81898D9A8D099590CF2F819E
:1010A00038852615370509F48ACF31E0B31207C019
:1010B000A31205C01C96ED91FC91930178CF1E966A
:1010C000ED91FC917301E0CF6B857C856419750906
:1010D0000684F785E02D73010F8518899201A4011C
:1010E000898D9A8D0995A9CFF901349694913297FB
:1010F00045915491D91AB7E0DB9E400D511D112442
:10110000F901259134913C8B2B8BFA012590349079
:10111000FA013296749031963491398B32966490FC
:101120003196449041E04C1518F04A1508F07FC004
:10113000662D062C000C770B7C836B83842D042C8E
:10114000000C990B9E838D83A98DBA8DED91FC9136
:1011500011970284F385E02DCD010995512CD12CF6
:10116000C12CEA2DF0E0FA87E9872B2D30E03C878F
:101170002B87A401440D511D47FC5A95588F4F8B66
:1011800069817A81660D711D67FC7A957E876D870E
:101190007989C71608F051CF2C2D30E04D815E8142
:1011A000420F531FA985BA854A9FC0014B9F900DDE
:1011B0005A9F900D1124FC01E80DF91DF88BEF8763
:1011C000852D612C4F89588D420F531F5E8B4D8B9F
:1011D000671408F050C044244394480E877041F4CB
:1011E000C1010196EB89FC89E20DF31DD4901C012D
:1011F000D7FE19C0A98DBA8DED91FC91662D70E0D6
:10120000B1E0BB1219C0AB1217C02D853E85620F2D
:10121000731F0484F585E02D2F8138854D895E8903
:10122000898D9A8D0995DD0C6394842DD1CF1E8212
:101230001D821C821B8288CF4B815C81640F751FCD
:10124000AB85BC856A9FC0016B9F900D7A9F900D06
:10125000112469817A81680F791F0684F785E02D52
:10126000EF80F88409851A859D014F855889898DFD
:101270009A8D0995D8CF570CC3948ACF6A960FB62A
:10128000F894DEBF0FBECDBFDF91CF911F910F91BC
:10129000FF90EF90DF90CF90BF90AF909F908F9096
:1012A0007F906F905F904F903F902F9008958F9216
:1012B0009F92AF92CF92EF92FF920F931F93CF9393
:1012C000DF93EC01262F898D9A8D009709F051C08C
:1012D0006A30D1F41D861C868D8948E0849F900178
:1012E00011248E859F85820F931F9F878E8781E0B3
:1012F00090E0DF91CF911F910F91FF90EF90CF90F1
:10130000AF909F908F9008956D3089F3CC88AD8811
:101310008F898823C1F08C859D8536E0C39E800D22
:10132000911D1124488559854817590764F44E8545
:101330005F851D861C8638E0A39EC0011124840FA2
:10134000951F9F878E87EA88FB88088919894E85B3
:101350005F856C857D85CE010E9432072C898C8546
:101360009D8546E0249F800D911D11249D878C87CB
:10137000BECF6A3069F41D861C86FC013896E49164
:101380002D898E859F85E29F800D911D1124ADCF03
:101390006D3009F4ACCFFC0134963491631708F436
:1013A000A6CF3296E491E61708F4A1CFFC0132965D
:1013B00085909490462F431B342F47E0349F800C38
:1013C000911C1124F401329634913196E491332327
:1013D000A9F1EE2399F1CC88F4013596E491AD881A
:1013E0004F89442301F10E2E000CFF0BE30FF11D7A
:1013F000CE9EA001CF9E500D11246C857D85460F99
:10140000571F68857985641775076CF44E855F856D
:101410001D861C86FC013896E491AE9E400D511D40
:1014200011245F874E87EA88FB88088919894E85D1
:101430005F856C857D85CE010E943207F40134966C
:10144000E4912C898C859D85E29F800D911D11244E
:101450008DCF6F927F928F929F92AF92BF92CF92D9
:10146000DF92EF92FF920F931F93CF93DF93EC01E4
:101470006B015A0139014801E881F9810284F38541
:10148000E02D0995E881F9810288F389E02D870133
:101490009301A501B601CE010995A501480D591D7D
:1014A00041505109E881F9810288F389E02D9301C7
:1014B000B601CE010995E881F9810088F189E02D16
:1014C0009401A501B601CE010995C60CD71CB60141
:1014D00061507109E881F9810088F189E02D94015A
:1014E000A501CE010995E881F9810688F789E02DEB
:1014F000CE01DF91CF911F910F91FF90EF90DF9080
:10150000CF90BF90AF909F908F907F906F900994F5
:101510006F927F928F929F92AF92BF92CF92DF9203
:10152000EF92FF920F931F93CF93DF935C01EB0138
:101530006A01490138018701DC01ED91FC916217D4
:10154000730719F5641675062CF0962D872D3A0150
:10155000C92ED82E9601261937092F5F3F4F048CCC
:10156000F58DE02DA301BE01C5010995DF91CF9155
:101570001F910F91FF90EF90DF90CF90BF90AF90B1
:101580009F908F907F906F9008954615570591F426
:101590002617370724F0892D4B01C22FD82F9E0123
:1015A000281939092F5F3F4F068CF78DE02DA601D2
:1015B000B401DACF0284F385E02D0995D501ED91D0
:1015C000FC910488F589E02D83019401A601BE01F8
:1015D000C5010995D501ED91FC910688F789E02DAB
:1015E000C501DF91CF911F910F91FF90EF90DF9098
:1015F000CF90BF90AF909F908F907F906F90099405
:10160000EF92FF920F931F93DC011A960D911C919C
:101610001B9718962D913C911997ED91FC9100A084
:10162000F1A1E02D7B0150E040E070E060E0099521
:101630001F910F91FF90EF9008954F925F926F92DC
:101640007F928F929F92AF92BF92CF92DF92EF9252
:10165000FF920F931F93CF93DF936C012B015A01DD
:1016600039014801DC01ED91FC910284F385E02D04
:101670000995E201640C751CD601ED91FC91C6152B
:10168000D7055CF40088F189E02D87019401A5015C
:10169000BE01C60109952196EFCF0688F789E02D96
:1016A000C601DF91CF911F910F91FF90EF90DF90D6
:1016B000CF90BF90AF909F908F907F906F905F90F2
:1016C0004F9009948F929F92AF92BF92CF92DF92E8
:1016D000EF92FF920F931F93CF93DF93EC015B0187
:1016E0004A016901E881F9810284F385E02D0995B9
:1016F00095012C0D3D1D21503109E881F9810488A7
:10170000F589E02D78018401A401B501CE01099588
:10171000E881F9810688F789E02DCE01DF91CF912C
:101720001F910F91FF90EF90DF90CF90BF90AF90FF
:101730009F908F9009948F929F92AF92BF92CF9279
:10174000DF92EF92FF920F931F93CF93DF93EC0101
:101750005B014A0169017801E881F9810284F3851E
:10176000E02D0995C80CD91C860101501109E881AA
:10177000F9810488F589E02D9501A401B501CE0118
:101780000995E881F9810688F789E02DCE01DF917E
:10179000CF911F910F91FF90EF90DF90CF90BF906E
:1017A000AF909F908F900994EF92FF920F931F93A9
:1017B000DC01ED91FC9100A0F1A1E02D09951F91B4
:1017C0000F91FF90EF9008950F931F93DC01ED911F
:1017D000FC91068CF78DE02D09951F910F910895CE
:1017E0000F931F93DC01ED91FC91048CF58DE02D9E
:1017F00009951F910F910895DC01ED91FC910084F2
:10180000F185E02D09942F923F924F925F926F9253
:101810007F928F929F92AF92BF92CF92DF92EF9280
:10182000FF920F931F93CF93DF9300D000D000D08F
:10183000CDB7DEB73C016A013E832D83FC82EB828B
:101840005801A41AB50AB7FE03C0B194A194B10817
:101850008D809E80861A970A97FE03C0919481948A
:1018600091088A149B045CF0902F812F0D811E81BA
:101870009D838E839C2D8D2D6B01692F782F0C15E8
:101880001D055CF09D818E817E836D83692F782F8D
:10189000902F812F8601C92ED82E1601201A310AC9
:1018A0002B012D813E81421A530A57FE03C05194E9
:1018B00041945108710137FE03C03FEFE31AF30A68
:1018C000F594E7948D819E81861797075CF5A1E0DA
:1018D000B0E0BA83A983C016D1064CF1D301ED91D3
:1018E000FC910484F585E02D2B813C81A8016D815C
:1018F0007E818A149B041CF04D815E81B801C30176
:101900000995E418F508F7FE0AC02D813E8189810A
:101910009A81280F391F3E832D83E20CF31C0F5F41
:101920001F4FD9CF2FEF3FEF3A832983D4CF26968D
:101930000FB6F894DEBF0FBECDBFDF91CF911F91E0
:101940000F91FF90EF90DF90CF90BF90AF909F905E
:101950008F907F906F905F904F903F902F90089561
:101960000F931F93CF93DF931F92CDB7DEB78C01F8
:10197000698360E0FC01868D0E94690341E050E0CC
:10198000BE016F5F7F4FF801838D948D0E949A0492
:101990000F90DF91CF911F910F910895CF93C82F92
:1019A00087FDCFE7C093320561E283E195E00E94B5
:1019B000B00C6C2F606883E195E00E94B00C60E28F
:1019C00083E195E0CF910C94B00CCF92DF92EF922F
:1019D000FF92CF938091300587FD1CC061E00E948B
:1019E000970360E0809130050E9469030E94EE0435
:1019F0006B017C010E94EE046C197D098E099F0920
:101A0000683E734081059105A8F361E0809130053F
:101A10000E946903C0913305C83008F0C7E0C09345
:101A2000330561E283E195E00E94B00C6C2F6061A8
:101A300083E195E00E94B00C60E283E195E00E94B2
:101A4000B00C809132050E94CE0C60E283E195E0FB
:101A50000E94B00C6CE083E195E0CF91FF90EF9095
:101A6000DF90CF900C94B00CFF920F931F93CF9305
:101A7000DF9390913405992339F0809135058F5F7C
:101A80008917E8F580933505D0913805D695D69518
:101A9000D69584E5D89F80011124809139058695DB
:101AA000869586958D1780F16D2F606483E195E0B2
:101AB0000E94B00CC0913605F09037056C2F60681D
:101AC00083E195E00E94B00C61E0809131050E94B5
:101AD00069034F2D50E06C2F70E0461B570B4F5F92
:101AE0005F4F600F711F60507F4F80912E05909166
:101AF0002F050E949A04DF5F0C5A1F4FCECF109221
:101B000035050E94E50CC0CF60E483E195E00E94BA
:101B1000B00C83E580933605109237058FE28093F1
:101B2000380510923905DF91CF911F910F91FF90E9
:101B300008951F93CF93DF93EC01162F60E20E946C
:101B4000B00C6CE011116DE0CE01DF91CF911F91CF
:101B50000C94B00CFC0177FD55C080859185681709
:101B600079070CF04FC057FD4DC08285938548170B
:101B700059070CF047C08689823009F444C083308D
:101B800009F44EC0813031F48FE290E0861B970B50
:101B9000BA01AC01842FA62F93A1691708F4962FE0
:101BA00093A394A19A1708F49A2F94A395A1891747
:101BB00008F4982F95A396A1981708F4982F96A348
:101BC000CA0157FD0796E3E095958795EA95E1F7F9
:101BD000A4E5A89FF001A99FF00D1124E60FF71FBF
:101BE000E050FF4FCA0168E070E00E94341C41E001
:101BF00050E001C0440F8A95EAF78081232BB9F0A9
:101C0000842B8083089583E590E0DC01A61BB70B4D
:101C1000BD018FE290E0DC01A41BB50BAD01BACF92
:101C200083E590E0841B950BAB01BC01B3CF4095DD
:101C30008423E7CF089590E080E00895E0E0F1E0AC
:101C400088EF91E0DF019C011D9221503040E1F7C7
:101C50001092360580913705833508F483E580932B
:101C6000370510923805809139058F3208F48FE2DC
:101C7000809339051092200510921F0510922205BD
:101C80001092210508950E94A91DFB0101900020DA
:101C9000E9F73197AF01461B570BDC01ED91FC9141
:101CA0000280F381E02D09948F929F92AF92BF92B0
:101CB000EF92FF920F931F93CF93DF93CDB7DEB7D1
:101CC000A1970FB6F894DEBF0FBECDBF7C01FA011D
:101CD000CB0119A2223008F42AE08E010F5D1F4FBC
:101CE000822E912CB12CA12CBF01A50194010E9440
:101CF000481CF901CA016A300CF5605DD8016E9389
:101D00008D01232B242B252B79F790E080E0109771
:101D100021F0BD01C7010E94450EA1960FB6F894AF
:101D2000DEBF0FBECDBFDF91CF911F910F91FF900E
:101D3000EF90BF90AF909F908F900895695CDECF39
:101D4000CF93DF936EE473E083E195E00E94450E4C
:101D5000EC0160E573E083E195E00E94450E8C0F95
:101D60009D1FDF91CF9108952F923F924F925F92E6
:101D70006F927F928F929F92AF92BF92CF92DF929B
:101D8000EF92FF921F93CF93DF93EC016A017B01E7
:101D9000722EAB019601CB01B6010E942F1C63E5A8
:101DA00073E0811126C046015701E894B7F82FEF80
:101DB0003FEF4FE75FE7C501B4010E942F1C81117F
:101DC0000CC02FEF3FEF4FE75FE7C501B4010E9462
:101DD000651A67E573E0181664F02FEF3FEF4FE7E1
:101DE0005FE4C701B6010E94BD1B1816B4F46BE591
:101DF00073E0CE01DF91CF911F91FF90EF90DF90C4
:101E0000CF90BF90AF909F908F907F906F905F909A
:101E10004F903F902F900C94450E2FEF3FEF4FE7E0
:101E20005FECC701B6010E94651A87FDE0CF20E094
:101E300030E0A901C701B6010E94651A312C212C9E
:101E400087FF0DC0E881F9810190F081E02D6DE2FE
:101E5000CE0109951C01F7FAF094F7F8F09410E020
:101E600060E070E080E09FE3711641F020E030E038
:101E700040E251E40E946A1A1F5FF6CFA701960163
:101E80000E94F9192B013C010E94DC1A4B015C01F4
:101E90002AE0BC01A401CE010E94540E7C01E20C98
:101EA000F31C1123E1F1C501B4010E940B1B9B013E
:101EB000AC01C301B2010E94F8194B015C01E88139
:101EC000F9810190F081E02D6EE2CE010995E80ED6
:101ED000F91E115020F120E030E040E251E4C5014C
:101EE000B4010E94C21B2B013C010E94DC1A4B0171
:101EF000B12CA12C2AE0B501A401CE010E94540E00
:101F0000E80EF91EC501B4010E940B1B9B01AC0138
:101F1000C301B2010E94F8194B015C01DACFC7017D
:101F2000DF91CF911F91FF90EF90DF90CF90BF9006
:101F3000AF909F908F907F906F905F904F903F9069
:101F40002F9008951F93CF93DF9385ED8093BC006E
:101F50008091770390917803A0917903B0917A03EF
:101F60000796A11DB11D23E0B695A7959795879576
:101F70002A95D1F72091BC0024FD03C01092BF0325
:101F800052C040917703509178036091790370912A
:101F90007A03452B462B472B69F30097A105B10522
:101FA00041F02AE22A95F1F700C00197A109B10991
:101FB000E1CF80917603C1E0C0937503882399F146
:101FC000D091B8001091BA008091BC008A7B8093B8
:101FD000BC0060E082E10E94690360E083E10E944E
:101FE00069031092BF03C093C1031092C00361E064
:101FF00082E10E94690361E083E10E9469038091AC
:10200000B9008E7F8093B9008091B9008D7F809355
:10201000B90088E48093B80085E48093BC001093F5
:10202000BA00D093B800DF91CF911F9108951F920D
:102030000F920FB60F9211242F933F938F939F937C
:10204000AF93BF9380914F0490915004A09151049D
:10205000B091520430914E0423E0230F2D3758F5F0
:102060000196A11DB11D20934E0480934F049093BF
:102070005004A0935104B093520480915304909162
:102080005404A0915504B09156040196A11DB11DB0
:102090008093530490935404A0935504B093560432
:1020A000BF91AF919F918F913F912F910F900FBE54
:1020B0000F901F90189526E8230F0296A11DB11DC1
:1020C000D2CF1F920F920FB60F9211242F933F93EE
:1020D0004F935F936F937F938F939F93AF93BF9330
:1020E000EF93FF9387E594E00E949105FF91EF91B4
:1020F000BF91AF919F918F917F916F915F914F9120
:102100003F912F910F900FBE0F901F9018951F9227
:102110000F920FB60F9211242F938F939F93EF93EB
:10212000FF93E0916704F09168048081E0916D0471
:10213000F0916E0482FD1BC09081809170048F5FCE
:102140008F7320917104821741F0E0917004F0E0E8
:10215000E95AFB4F958F80937004FF91EF919F9107
:102160008F912F910F900FBE0F901F901895808127
:10217000F4CF1F920F920FB60F9211242F933F931B
:102180004F935F936F937F938F939F93AF93BF937F
:10219000EF93FF93E0912704F0912804309749F0E2
:1021A000A685B7858585968D91FF14C09C9189235E
:1021B000A1F4FF91EF91BF91AF919F918F917F918A
:1021C0006F915F914F913F912F910F900FBE0F90A4
:1021D0001F9018959C91892361F7A389B4899C91DC
:1021E0008589809589238C93868997890197F1F752
:1021F000608D718DA685B785558538E020E0CB01CF
:102200000197F1F7822F90E095958795282F4C91B3
:10221000452309F02068315091F7868D81FD209586
:102220008091250490E001968F73992730912604C0
:10223000381799F0A0912504B0E0AB51BC4F2C9316
:1022400080932504828D938D0197F1F7A389B4893A
:102250008C919589892B8C93ACCF868D8160868FEC
:10226000F1CF1F920F920FB60F9211242F933F932D
:102270004F935F936F937F938F939F93AF93BF938E
:10228000EF93FF938091B900887F803609F44AC0AC
:10229000F0F5883209F4A5C018F5803109F499C029
:1022A000B8F4882309F4F5C0883009F492C0FF918E
:1022B000EF91BF91AF919F918F917F916F915F91BE
:1022C0004F913F912F910F900FBE0F901F90189537
:1022D000883109F486C0803251F78093BE0314C060
:1022E000803409F49BC040F48033B9F38833F9F6A5
:1022F0008093BE0385ECAEC0803509F483C0883579
:1023000009F494C0883499F60E94A20FD0CF88397E
:1023100009F48AC038F5883729F050F4883611F06E
:10232000803729F683E08093BF031092BD0355C028
:10233000883809F479C0803919F0803809F0B7CFAE
:102340008091BD03803208F06FC0E091BD0381E051
:102350008E0F8093BD038091BB00F0E0E356FC4FED
:1023600080833BC0803B39F0D0F4803A09F477C0D9
:10237000883A09F09CCF84E08093BF0310929C03BD
:1023800010929B03F0E0E0E0099580919B0381119E
:102390000FC081E080939B0310927B0309C0803CB7
:1023A00009F4A8CF883C09F4A5CF883B09F07FCF7A
:1023B000E0919C0381E08E0F80939C03F0E0E55850
:1023C000FC4F80818093BB0090919C0380919B0384
:1023D00029C08091E4038093BB0085EC8093BC000E
:1023E00066CF9091E3038091E203981758F5E0914E
:1023F000E30381E08E0F8093E303F0E0EE53FC4FA4
:102400008081E9CFE091E30381E08E0F8093E303C5
:102410008091BB00F0E0EE53FC4F80839091E3038A
:102420008091E2039817C8F285E8D8CFE091E303E2
:1024300081E08E0F8093E3038091BB00F0E0EE53C8
:10244000FC4F80838091C10381115ECF81E0809336
:10245000C00384EA8093BC001092BF0328CF85ECB0
:102460008093BC001092BF038091BD03803230F492
:10247000E091BD03F0E0E356FC4F10826091BD0394
:1024800070E08DE993E0F0E0E0E009951092BD0383
:102490000ECF1092BE0338CFCF92DF92EF92FF9211
:1024A000CF9310925A041092590498EEC92E93E0DB
:1024B000D92EE12CF12CC0925B04D0925C04E09206
:1024C0005D04F0925E0482E093E090935804809360
:1024D000570485EC90E0909364048093630484EC4B
:1024E00090E0909366048093650480EC90E0909374
:1024F00068048093670481EC90E090936A04809371
:10250000690482EC90E090936C0480936B0486ECF9
:1025100090E090936E0480936D041092700410927A
:1025200071041092720410927304109216051092A6
:10253000150524E530E0309318052093170580E356
:1025400090E090931A058093190530931C05209311
:102550001B0590931E0580931D051092290510926E
:10256000200510921F051092220510922105C1E04E
:10257000C0932805C09327058FEF9FEF9093260502
:10258000809325059093240580932305C0932A0505
:1025900010922B0510922D0510922C0586E293E0E7
:1025A00090931405809313058CE190E00E94841CA5
:1025B000DC0111961C921E9213961C921E92129789
:1025C0008AE01B968C931B978DE01C968C931C972E
:1025D0008FEF1E968C931E978CE01D968C931D9703
:1025E000E8EBF5E0E491F0E0EE0FFF1FEC55FA4F59
:1025F0008591949156969C938E935597EAE9F5E0D0
:10260000E4915A96EC935A97EAEBF5E0E491F0E006
:10261000EE0FFF1FEC55FA4F8591949150969C93C5
:102620008E931F97ECE9F5E0E4915796EC9357975A
:10263000EBEBF5E0E491F0E0EE0FFF1FEC55FA4F05
:102640008591949152969C938E935197EDE9F5E084
:10265000E4915996EC93599740E059E06DE370E0AE
:1026600014964D935D936D937C93179781E090E062
:1026700019969C938E9318971A961C921A975B96AC
:102680001C925B97B0932F05A0932E058BE080934F
:10269000310589E0809330051092F7041092F6041A
:1026A000C092F804D092F904E092FA04F092FB048C
:1026B00084E193E09093F5048093F40410920B0569
:1026C00010920A0510920D0510920C0510920F053C
:1026D00010920E05109211051092100560911205CE
:1026E0006E7F6D7F60931205669561706C2781E047
:1026F0000E94690361E081E00E949703E1E9F5E04F
:10270000E491E0930405EFEAF5E0E491F0E0EE0FE8
:10271000FF1FEC55FA4F8591949190930605809395
:10272000050560E080E00E9497038091120581FD1D
:1027300004C061E080E00E94690310920005E0E9B6
:10274000F5E0E491E0930105EEEAF5E0E491F0E0D4
:10275000EE0FFF1FEA57FA4F85919491909303056E
:1027600080930205CF91FF90EF90DF90CF90089576
:10277000CF93DF93CDB7DEB768970FB6F894DEBF7F
:102780000FBECDBF789484B5826084BD84B581606E
:1027900084BD85B5826085BD85B5816085BD80912C
:1027A0006E00816080936E001092810080918100A4
:1027B000826080938100809181008160809381009C
:1027C000809180008160809380008091B10084605E
:1027D0008093B1008091B00081608093B0008091BF
:1027E0007A00846080937A0080917A00826080937E
:1027F0007A0080917A00816080937A0080917A00DB
:10280000806880937A001092C100E0916704F09193
:10281000680482E08083E0916304F0916404108294
:10282000E0916504F09166048FEC808310926F0450
:10283000E0916B04F0916C0486E08083E091690480
:10284000F0916A04808180618083E0916904F09155
:102850006A04808188608083E0916904F0916A0451
:10286000808180688083E0916904F0916A048081AE
:102870008F7D808360E08EE00E94970360E08FE0B0
:102880000E94970360E080E10E94970360E081E18D
:102890000E94970360E085E00E94970360E086E075
:1028A0000E94970360E087E00E94970360E088E061
:1028B0000E94970360E083E10E94970360E082E159
:1028C0000E94970361E082E00E94970361E082E04A
:1028D0000E94970361E083E00E94970361E084E037
:1028E0000E94970380912E0590912F059A838983EA
:1028F000DC011B968C918F3F49F061E00E949703A9
:1029000061E0E981FA8183850E946903A981BA8126
:102910008D919C91892B09F4F3C11FB7F894809194
:102920002904811127C0E8EBF5E08491EAE9F5E09C
:102930009491E82FF0E0EE0FFF1FE859FA4FA591B0
:10294000B491EC91E92321F461E08AE00E946903EB
:1029500061E08AE00E9497038CB580618CBD8CB5E4
:1029600080648CBD61E08DE00E94970361E08BE0A4
:102970000E949703809129048F5F809329041FBFD1
:1029800081E0E981FA81838F61E0809131050E94C5
:1029900097038091300587FD03C061E00E94970393
:1029A00084E08093330588E28093320510923405E9
:1029B000109235050E94E50C10923605809137057E
:1029C000833508F483E580933705109238058091AC
:1029D00039058F3208F48FE2809339050E94340D57
:1029E00082E30E94CE0C0E941E0E00E010E083E104
:1029F0000E944003BC01990F880B990B0E940D1B8C
:102A00002B013C0140924A0450924B0460924C04CA
:102A100070924D0482E10E944003BC01990F880B23
:102A2000990B0E940D1B6D877E878F87988B609313
:102A3000460470934704809348049093490420E02F
:102A400030E040E85FE3C301B2010E94651A8111E2
:102A50001BC380E197E29A8789878EE00E94C803B2
:102A6000BC01990F880B990B0E940D1B69837A8317
:102A70008B839C836093420470934304809344044B
:102A8000909345048FE00E94C803BC01990F880B06
:102A9000990B0E940D1B4B015C0180923E049092A9
:102AA0003F04A0924004B092410480E10E94C80318
:102AB000BC01990F880B990B0E940D1B6B017C01C7
:102AC000C0923A04D0923B04E0923C04F0923D0460
:102AD00081E10E94C803BC01990F880B990B0E94E9
:102AE0000D1B6D837E838F8398876093360470936C
:102AF00037048093380490933904A985BA851197D7
:102B0000BA87A987AB2B09F0A8CF2AE038E240EAC0
:102B10005BE369817A818B819C810E94C21B6987FA
:102B20007A878B879C8760934204709343048093D9
:102B30004404909345042AE038E240EA5BE3C5018F
:102B4000B4010E94C21B4B015C0180923E04909232
:102B50003F04A0924004B09241042AE038E240EAE7
:102B60005BE3C701B6010E94C21B69837A838B8332
:102B70009C8360933A0470933B0480933C0490934D
:102B80003D042AE038E240EA5BE36D817E818F817B
:102B900098850E94C21B6B017C01C0923604D092C2
:102BA0003704E0923804F092390485E00E94400333
:102BB000BC01990F880B990B0E940D1B6D837E83BE
:102BC0008F83988760933204709333048093340426
:102BD0009093350486E00E944003BC01990F880B56
:102BE000990B0E940D1B698B7A8B8B8B9C8B60934E
:102BF0002E0470932F04809330049093310487E067
:102C00000E944003BC01990F880B990B0E940D1B79
:102C10006D8B7E8B8F8B988F60932A0470932B041F
:102C200080932C0490932D0488E00E94400320E0C0
:102C300030E0A9016D817E818F8198850E94651A9F
:102C400081118FC02AE939E949E950EC69857A8513
:102C50008B859C850E94C21B609342047093430441
:102C6000809344049093450420E030E0A9016989F1
:102C70007A898B899C890E94651A811189C02AE909
:102C800039E949E950ECC501B4010E94C21B6093C7
:102C90003E0470933F04809340049093410420E0ED
:102CA00030E0A9016D897E898F89988D0E94651A0F
:102CB000811181C02AE939E949E950EC69817A81B9
:102CC0008B819C810E94C21B60933A0470933B04E9
:102CD00080933C0490933D0420E030E0A9016D8195
:102CE0007E818F8198850E94651A81117BC02AE9B7
:102CF00039E949E950ECC701B6010E94C21B84C002
:102D000061E0E981FA8184850E949703A981BA81F3
:102D10001A968C911A978B7FF9F460E01C968C912F
:102D20000E946903A981BA811D968C918F3F49F059
:102D300061E00E94970361E0E981FA8185850E9444
:102D40006903A981BA811E968C918F3F09F418CE30
:102D500060E00E94970314CE61E0E981FA818485E6
:102D6000DFCF20E030E04AE754E469857A858B853F
:102D70009C850E946A1A20E030E84DE655E40E94E6
:102D8000C21B29853A854B855C850E94F91964CF61
:102D900020E030E04AE754E4C501B4010E946A1A19
:102DA00020E030E84DE655E40E94C21BA5019401E5
:102DB0000E94F9196CCF20E030E04AE754E46981C1
:102DC0007A818B819C810E946A1A20E030E84DE66E
:102DD00055E40E94C21B29813A814B815C810E948B
:102DE000F91972CF20E030E04AE754E4C701B60198
:102DF0000E946A1A20E030E84DE655E40E94C21BAA
:102E0000A70196010E94F919609336047093370464
:102E10008093380490933904C0904204D0904304C6
:102E2000E0904404F090450420E030E040EA51E4B2
:102E3000C701B6010E94BD1B181654F020E030E017
:102E400040EA51ECC701B6010E94651A87FF5CC2D7
:102E500020E030E040E85FE3C301B2010E94651A60
:102E6000811152C261E082E00E94690380903E04B9
:102E700090903F04A0904004B090410420E030E0E6
:102E800040EA51E4C501B4010E94BD1B181654F07C
:102E900020E030E040EA51ECC501B4010E94651A1F
:102EA00087FF48C220E030E040E85FE3C301B201A1
:102EB0000E94651A81113EC261E082E00E946903AE
:102EC00080903A0490903B04A0903C04B0903D0464
:102ED00020E030E040EA51E4C501B4010E94BD1B8E
:102EE000181654F020E030E040EA51ECC501B4017E
:102EF0000E94651A87FF34C220E030E040E85FE3BB
:102F0000C301B2010E94651A81112AC261E083E007
:102F10000E9469038090360490903704A090380492
:102F2000B090390420E030E040EA51E4C501B4013A
:102F30000E94BD1B181654F020E030E040EA51EC2E
:102F4000C501B4010E94651A87FF20C220E030E06D
:102F500040E85FE3C301B2010E94651A811116C205
:102F600061E084E00E94690320E030E040E85FE334
:102F70006D857E858F8598890E94651A811120C094
:102F800022E0B701A60187E594E00E94B40E60E557
:102F900073E087E594E00E94450E40913E04509115
:102FA0003F04609140047091410422E087E594E081
:102FB0000E94B40E60E573E087E594E00E94450E40
:102FC0006FE573E083E195E00E94450E4091420475
:102FD00050914304609144047091450422E083E1E0
:102FE00095E00E94B40E0E94A00E64E673E083E1B7
:102FF00095E00E94450E40913E0450913F0460913F
:1030000040047091410422E083E195E00E94B40EF7
:103010000E94A00E69E673E083E195E00E94450EF0
:1030200040913A0450913B0460913C0470913D04FE
:1030300022E083E195E00E94B40E0E94A00E6EE6AD
:1030400073E083E195E00E94450E40913604509173
:103050003704609138047091390422E083E195E0EF
:103060000E94B40E0E94A00E0E94340D0E941E0EFB
:103070000115110509F4BBCC0E947D05882309F4D4
:10308000B6CC0E940000B3CC20E030E0A901C3011F
:10309000B2010E94651A8111BFCEE8E9FAE3FA8312
:1030A000E9838EE00E94C803BC01990F880B990B3D
:1030B0000E940D1B6B017C0120914204309143045E
:1030C00040914404509145040E94BD1B181644F4DD
:1030D000C0924204D0924304E0924404F09245042A
:1030E0008FE00E94C803BC01990F880B990B0E94C6
:1030F0000D1B6B017C0120913E0430913F044091F7
:103100004004509141040E94BD1B181644F4C09223
:103110003E04D0923F04E0924004F092410480E1EA
:103120000E94C803BC01990F880B990B0E940D1BCC
:103130006B017C0120913A0430913B0440913C04A6
:1031400050913D040E94BD1B181644F4C0923A04ED
:10315000D0923B04E0923C04F0923D0481E10E9455
:10316000C803BC01990F880B990B0E940D1B6B01C2
:103170007C012091360430913704409138045091FD
:1031800039040E94BD1B181644F4C0923604D09234
:103190003704E0923804F092390489819A810197CA
:1031A0009A838983892B09F07CCF2AE038E240EAB0
:1031B0005BE36091420470914304809144049091D8
:1031C00045040E94C21B6B017C0120E030E04AE70D
:1031D00054E40E946A1A20E030E84DE655E40E946B
:1031E000C21BA70196010E94F91921E834E045E3CA
:1031F0005FE30E94C21B6093420470934304809378
:103200004404909345042AE038E240EA5BE360918D
:103210003E0470913F0480914004909141040E94CB
:10322000C21B6B017C0120E030E04AE754E40E94BD
:103230006A1A20E030E84DE655E40E94C21BA7015F
:1032400096010E94F91921E834E045E35FE30E940A
:10325000C21B60933E0470933F048093400490939C
:1032600041042AE038E240EA5BE360913A0470915D
:103270003B0480913C0490913D040E94C21B6B0171
:103280007C0120E030E04AE754E40E946A1A20E022
:1032900030E84DE655E40E94C21BA70196010E944A
:1032A000F91921E834E045E35FE30E94C21B609313
:1032B0003A0470933B0480933C0490933D042AE0CD
:1032C00038E240EA5BE36091360470913704809104
:1032D0003804909139040E94C21B6B017C0120E0EC
:1032E00030E04AE754E40E946A1A20E030E84DE6F4
:1032F00055E40E94C21BA70196010E94F91921E81A
:1033000034E045E35FE3F9CC2AE939E941E651E4E9
:10331000C701B6010E94BD1B181654F420E030E02E
:10332000A901C301B2010E94651A882309F49ACD4C
:1033300060E099CD2AE939E941E651E4C501B401DB
:103340000E94BD1B181654F420E030E0A901C3010F
:10335000B2010E94651A882309F4AECD60E0ADCDBC
:103360002AE939E941E651E4C501B4010E94BD1BD7
:10337000181654F420E030E0A901C301B2010E9404
:10338000651A882309F4C2CD60E0C1CD2AE939E984
:1033900041E651E4C501B4010E94BD1B181654F466
:1033A00020E030E0A901C301B2010E94651A882320
:1033B00009F4D6CD60E0D5CD84E193E09093F50497
:1033C0008093F4048091270490912804845F9440B2
:1033D00071F4E0910705F09108059081809109054D
:1033E00080958923808310922804109227040895E1
:1033F0005058BB27AA270E94101A0C94831B0E94C6
:10340000751B38F00E947C1B20F039F49F3F19F4A3
:1034100026F40C94721B0EF4E095E7FB0C946C1BE5
:10342000E92F0E94941B58F3BA17620773078407A9
:10343000950720F079F4A6F50C94B61B0EF4E095F0
:103440000B2EBA2FA02D0B01B90190010C01CA015E
:10345000A0011124FF27591B99F0593F50F4503E09
:1034600068F11A16F040A22F232F342F4427585FFB
:10347000F3CF469537952795A795F0405395C9F713
:103480007EF41F16BA0B620B730B840BBAF09150CB
:10349000A1F0FF0FBB1F661F771F881FC2F70EC06A
:1034A000BA0F621F731F841F48F48795779567953D
:1034B000B795F7959E3F08F0B0CF9395880F08F029
:1034C0009927EE0F9795879508950E94481B08F459
:1034D00081E008950E947E1A0C94831B0E947C1B3D
:1034E00058F00E94751B40F029F45F3F29F00C94BE
:1034F0006C1B51110C94B71B0C94721B0E94941BF3
:1035000068F39923B1F3552391F3951B550BBB2712
:10351000AA2762177307840738F09F5F5F4F220F57
:10352000331F441FAA1FA9F335D00E2E3AF0E0E84E
:1035300032D091505040E695001CCAF72BD0FE2F98
:1035400029D0660F771F881FBB1F2617370748072C
:10355000AB07B0E809F0BB0B802DBF01FF279358E4
:103560005F4F3AF09E3F510578F00C946C1B0C9421
:10357000B71B5F3FE4F3983ED4F386957795679544
:10358000B795F7959F5FC9F7880F911D9695879519
:1035900097F90895E1E0660F771F881FBB1F621738
:1035A00073078407BA0720F0621B730B840BBA0BF6
:1035B000EE1F88F7E09508950E949C1B88F09F57A6
:1035C00098F0B92F9927B751B0F0E1F0660F771F47
:1035D000881F991F1AF0BA95C9F714C0B13091F03D
:1035E0000E94B61BB1E008950C94B61B672F782F8C
:1035F0008827B85F39F0B93FCCF386957795679502
:10360000B395D9F73EF490958095709561957F4F6D
:103610008F4F9F4F0895E89409C097FB3EF4909513
:103620008095709561957F4F8F4F9F4F9923A9F09B
:10363000F92F96E9BB279395F6958795779567952A
:10364000B795F111F8CFFAF4BB0F11F460FF1BC06E
:103650006F5F7F4F8F4F9F4F16C0882311F096E901
:1036600011C0772321F09EE8872F762F05C06623AF
:1036700071F096E8862F70E060E02AF09A95660F68
:10368000771F881FDAF7880F9695879597F9089521
:10369000990F0008550FAA0BE0E8FEEF1616170663
:1036A000E807F907C0F012161306E407F50798F0CB
:1036B000621B730B840B950B39F40A2661F0232BE4
:1036C000242B252B21F408950A2609F4A140A69560
:1036D0008FEF811D811D089597F99F6780E870E045
:1036E00060E008959FEF80EC089500240A94161678
:1036F000170618060906089500240A9412161306E0
:10370000140605060895092E0394000C11F488236D
:1037100052F0BB0F40F4BF2B11F460FF04C06F5F89
:103720007F4F8F4F9F4F089557FD9058440F551F5F
:1037300059F05F3F71F04795880F97FB991F61F033
:103740009F3F79F087950895121613061406551FAA
:10375000F2CF4695F1DF08C0161617061806991F16
:10376000F1CF86957105610508940895E894BB270B
:1037700066277727CB0197F908950E94481B08F424
:103780008FEF08950E94D51B0C94831B0E94751B1C
:1037900038F00E947C1B20F0952311F00C946C1BD8
:1037A0000C94721B11240C94B71B0E94941B70F391
:1037B000959FC1F3950F50E0551F629FF001729FD6
:1037C000BB27F00DB11D639FAA27F00DB11DAA1FE5
:1037D000649F6627B00DA11D661F829F2227B00D32
:1037E000A11D621F739FB00DA11D621F839FA00DBD
:1037F000611D221F749F3327A00D611D231F849F0D
:10380000600D211D822F762F6A2F11249F57504063
:103810009AF0F1F088234AF0EE0FFF1FBB1F661FDE
:10382000771F881F91505040A9F79E3F510580F0A7
:103830000C946C1B0C94B71B5F3FE4F3983ED4F3DD
:10384000869577956795B795F795E7959F5FC1F74B
:10385000FE2B880F911D9695879597F908950E94E4
:10386000481B880B990B089597FB072E16F40094BC
:1038700007D077FD09D00E946A1C07FC05D03EF4F2
:10388000909581959F4F0895709561957F4F08950C
:10389000A1E21A2EAA1BBB1BFD010DC0AA1FBB1F54
:1038A000EE1FFF1FA217B307E407F50720F0A21BC6
:1038B000B30BE40BF50B661F771F881F991F1A9433
:1038C00069F760957095809590959B01AC01BD015D
:1038D000CF010895AA1BBB1B51E107C0AA1FBB1F44
:1038E000A617B70710F0A61BB70B881F991F5A958C
:1038F000A9F780959095BC01CD010895EE0FFF1FAB
:103900000590F491E02D09940F931F93CF93DF93CB
:103910008230910510F482E090E0E0913C05F09156
:103920003D0530E020E0B0E0A0E0309799F42115AB
:10393000310509F44AC0281B390B24303105D8F56C
:103940008A819B816115710589F1FB0193838283D3
:10395000FE0111C04081518102811381481759072E
:10396000E0F04817590799F4109761F012960C93FC
:10397000129713961C933296CF01DF91CF911F912E
:103980000F91089500933C0510933D05F4CF211548
:10399000310551F04217530738F0A901DB019A01B4
:1039A000BD01DF01F801C1CFEF01F9CF90933D05D3
:1039B00080933C05CDCFFE01E20FF31F81939193DD
:1039C0002250310939832883D7CF20913A0530918D
:1039D0003B05232B41F42091FA023091FB023093F6
:1039E0003B0520933A052091F8023091F902211508
:1039F000310541F42DB73EB74091FC025091FD02D4
:103A0000241B350BE0913A05F0913B05E217F307D3
:103A1000A0F42E1B3F0B2817390778F0AC014E5F3E
:103A20005F4F2417350748F04E0F5F1F50933B053B
:103A300040933A05819391939FCFF0E0E0E09CCFD3
:103A4000CF93DF930097E9F0FC0132971382128243
:103A5000A0913C05B0913D05ED0130E020E01097CC
:103A6000A1F420813181820F931F20913A0530917A
:103A70003B052817390709F061C0F0933B05E09337
:103A80003A05DF91CF910895EA01CE17DF07E8F5F7
:103A90004A815B819E0141155105B1F7E901FB8324
:103AA000EA8349915991C40FD51FEC17FD0761F4C2
:103AB000808191810296840F951FE9019983888303
:103AC000828193819B838A83F0E0E0E012968D915E
:103AD0009C9113970097B9F52D913C911197CD01C9
:103AE0000296820F931F20913A0530913B052817CB
:103AF000390739F6309751F510923D0510923C0583
:103B0000B0933B05A0933A05BCCFD383C2834081D9
:103B10005181840F951FC817D90761F44E5F5F4F1D
:103B200088819981480F591F518340838A819B81E5
:103B3000938382832115310509F0B0CFF0933D05C1
:103B4000E0933C059ECFFD01DC01C0CF13821282C1
:103B5000D7CF81E090E0F8940C94AE1D12E0C2EE55
:103B6000D2E004C0FE010E947E1C2196C33ED10714
:063B7000C9F7F894FFCF35
:103B7600000000000000000000000000000000003F
:103B8600000000000000000000000000000000002F
:103B9600000000000000C0E0F0F8FCFCFEFFFCE0C6
:103BA600000000000000000000000000000000000F
:103BB60000000000000000000000000000000000FF
:103BC60000000000000000000000000000000000EF
:103BD6000000000000F8F8F8F8F8F8F8F8F8F8F837
:103BE600F8F0F0E0E0C080C0FCFFFFFFFF7F3F7F02
:103BF600FFFFFFFFFF0000000000000000000000C4
:103C060000000000000000000000000000000000AE
:103C1600000000000000000000000000000000009E
:103C2600000000000000000000000F1F3F7FFFFFA4
:103C3600FFFFFFFFFFFFE7C7C7878F9F9FFFFFFFBE
:103C4600C1C0E0FCFFFFFFFFFFFCFCFCFCFEFEFE2C
:103C5600FCFCF8F8F0E0C0C0000000000000000026
:103C6600000000000000000000000000000000004E
:103C7600000000000000000000000000000000003E
:103C86000080C0E0F1FBFFFFFFFFFF7F1F0F0F87E4
:103C9600E7FFFFFF1F1F3FF9F8F8F8F8F8F8FDFFF8
:103CA600FFFFFFFFFFFFFFFF7F3F0F070100000041
:103CB60000000000000000000000000000000000FE
:103CC60000000000000000000000000000000000EE
:103CD600000000F0FEFFFFFFFFFFFFFFFFFFFFFEFC
:103CE6007E3F3F0F1FFFFFFFFCF0E0F1FFFFFFFFEE
:103CF600FFFCF001010101010101010000000000CB
:103D060000000000000000000000000000000000AD
:103D1600000000000000000000000000000000009D
:103D26000000000000000003030303030303030174
:103D360001010100000000000000030F1F3F7F7F0C
:103D4600FFFFFFFF7F7F1F03000000000000000051
:103D5600000000000000000000000000000000005D
:103D6600000000000000000000003E05800000008A
:103D76000000B30513054005000671054F056305F0
:103D860000000000390613051B0E38069506AB0623
:103D9600200600000000570913051B0E1A0EAA0D77
:103DA6003806FC0BD40BF00BE40B030C38061D078E
:103DB600990D9B0B620B1D0B000B880A290A5600F6
:103DC6000D0A006E616E00696E66006F76660056BB
:103DD600313A200056323A200056333A2000563403
:043DE6003A2000007F
:00000001FF
