:020000040000FA
:100000000C94E3020C940B030C940B030C94E4107B
:100010000C94E4100C94E4100C940B030C940B035C
:100020000C940B030C940B030C940B030C940B0318
:100030000C940B030C940B030C940B030C940B0308
:100040000C9442100C940B030C94B2100C948C1072
:100050000C940B030C940B030C940B030C940B03E8
:100060000C945C110C940B0300000000003E5B4FED
:100070005B3E3E6B4F6B3E1C3E7C3E1C183C7E3C08
:10008000181C577D571C1C5E7F5E1C00183C180016
:10009000FFE7C3E7FF0018241800FFE7DBE7FF30A6
:1000A000483A060E2629792926407F050507407F14
:1000B00005253F5A3CE73C5A7F3E1C1C08081C1C87
:1000C0003E7F14227F22145F5F005F5F06097F017D
:1000D0007F006689956A606060606094A2FFA29468
:1000E00008047E040810207E201008082A1C080836
:1000F0001C2A08081E101010100C1E0C1E0C303884
:100100003E3830060E3E0E06000000000000005F84
:1001100000000007000700147F147F14242A7F2AA0
:100120001223130864623649562050000807030062
:10013000001C2241000041221C002A1C7F1C2A08AE
:10014000083E080800807030000808080808000011
:1001500060600020100804023E5149453E00427F85
:10016000400072494949462141494D331814127FD4
:100170001027454545393C4A494931412111090774
:100180003649494936464949291E000014000000F5
:1001900040340000000814224114141414140041C7
:1001A00022140802015909063E415D594E7C121184
:1001B000127C7F494949363E414141227F414141BC
:1001C0003E7F494949417F090909013E4141517337
:1001D0007F0808087F00417F41002040413F017FA8
:1001E000081422417F404040407F021C027F7F0470
:1001F00008107F3E4141413E7F090909063E4151B9
:10020000215E7F09192946264949493203017F01A8
:10021000033F4040403F1F2040201F3F4038403FA9
:10022000631408146303047804036159494D4300BF
:100230007F4141410204081020004141417F0402F6
:10024000010204404040404000030708002054548D
:1002500078407F284444383844444428384444286B
:100260007F385454541800087E090218A4A49C78BE
:100270007F0804047800447D40002040403D007F1A
:100280001028440000417F40007C047804787C08FA
:100290000404783844444438FC18242418182424CE
:1002A00018FC7C08040408485454542404043F44B3
:1002B000243C4040207C1C2040201C3C4030403CE2
:1002C00044281028444C9090907C4464544C440042
:1002D00008364100000077000000413608000201A6
:1002E0000204023C2623263C1EA1A161123A404092
:1002F000207A38545455592155557941225454780F
:1003000042215554784020545579400C1E527212A7
:100310003955555559395454545939555454580030
:1003200000457C410002457D420001457C407D1234
:1003300011127DF0282528F07C5455450020545496
:100340007C547C0A097F4932494949323A44444441
:100350003A324A4848303A4141217A3A424020787C
:10036000009DA0A07D3D4242423D3D4040403D3C7D
:1003700024FF2424487E4943662B2FFC2F2BFF09A2
:1003800029F620C0887E0903205454794100004496
:100390007D413048484A32384040227A007A0A0A81
:1003A000727D0D19317D2629292F282629292926F4
:1003B00030484D4020380808080808080808382F39
:1003C00010C8ACBA2F102834FA00007B00000814C3
:1003D0002A142222142A14085500550055AA55AA99
:1003E00055AAFF55FF55FF000000FF00101010FF39
:1003F00000141414FF001010FF00FF1010F010F094
:10040000141414FC001414F700FF0000FF00FF1484
:1004100014F404FC141417101F10101F101F1414D0
:10042000141F00101010F0000000001F101010101A
:100430001F10101010F010000000FF10101010100E
:1004400010101010FF10000000FF140000FF00FF4C
:1004500000001F10170000FC04F4141417101714E8
:1004600014F404F40000FF00F7141414141414140A
:10047000F700F7141414171410101F101F1414147D
:10048000F4141010F010F000001F101F0000001FE7
:1004900014000000FC140000F010F01010FF10FF1A
:1004A000141414FF141010101F00000000F010FFAF
:1004B000FFFFFFFFF0F0F0F0F0FFFFFF0000000093
:1004C00000FFFF0F0F0F0F0F3844443844FC4A4A17
:1004D0004A347E02020606027E027E0263554941CC
:1004E000633844443C04407E201E2006027E020203
:1004F00099A5E7A5991C2A492A1C4C7201724C3017
:100500004A4D4D303048784830BC625A463D3E49ED
:100510004949007E0101017E2A2A2A2A2A44445F91
:10052000444440514A444040444A51400000FF0185
:1005300003E080FF000008086B6B08361236243693
:10054000060F090F060000181800000010100030F8
:1005500040FF0101001F01011E00191D1712003C80
:100560003C3C3C000000000000000000240027008C
:100570002A00000000080002010000030407000038
:1005800000000000000000000000230026002900F9
:10059000010204081020408001020408102001021A
:1005A0000408102000000000250028002B0004048F
:1005B000040404040404020202020202030303030B
:1005C00003037712651A11241FBECFEFD8E0DEBFF8
:1005D000CDBF13E0A0E0B1E0E4E6FCE302C005908B
:1005E0000D92A837B107D9F725E0A8E7B3E001C01D
:1005F0001D92A234B207E1F712E0C2EED2E004C0CD
:100600002197FE010E94F51CC13ED107C9F70E9447
:10061000E3130C94251E0C940000FC0120812EBDD8
:100620000DB407FEFDCF2EB5FC0120830895833065
:1006300081F028F4813099F08230A9F00895873054
:10064000A9F08830C9F08430B1F4809180008F7DAA
:1006500003C0809180008F7780938000089584B5D7
:100660008F7784BD089584B58F7DFBCF8091B000D6
:100670008F778093B00008958091B0008F7DF9CF7F
:10068000CF93DF93282F30E0F901EE58FA4F849191
:10069000F901E057FA4FD491F901E255FA4FC491AC
:1006A000CC23A1F081110E941703EC2FF0E0EE0F94
:1006B000FF1FEA57FA4FA591B491EC91ED2381E029
:1006C00090E009F480E0DF91CF91089580E090E020
:1006D000FACF1F93CF93DF93282F30E0F901EE5824
:1006E000FA4F8491F901E057FA4FD491F901E2559C
:1006F000FA4FC491CC23A9F0162F81110E94170341
:10070000EC2FF0E0EE0FFF1FEC55FA4FA591B491DE
:100710008FB7F894EC91111108C0D095DE23DC93CB
:100720008FBFDF91CF911F910895DE2BF8CFCF932C
:10073000DF9390E0FC01E057FA4F249182559A4FE5
:10074000FC0184918823D1F090E0880F991FFC016F
:10075000E859FA4FA591B491FC01EC55FA4FC591B7
:10076000D49161110EC09FB7F8948C91E22FE0955F
:100770008E238C932881E223E8839FBFDF91CF9162
:1007800008958FB7F894EC91E22BEC938FBFF6CFDE
:100790008E3008F08E508770806480937C0080914A
:1007A0007A00806480937A0080917A0086FDFCCF85
:1007B000809178009091790008958230910538F009
:1007C000880F991F880F991F05970197F1F70895D2
:1007D0009F92AF92BF92CF92DF92EF92FF920F93D0
:1007E0001F93CF93DF93EC016B018885998511E00E
:1007F000892B09F010E8F601A0808A2D8123992425
:1008000093948111912C2C813D814E815F8160E216
:1008100071EA87E090E00E94BF1C022FB12CE22E0B
:10082000F12C002319F0C7010E94DD038A85877F20
:1008300009F04FC08D858F3F89F09A2D912381E07B
:1008400009F480E0891551F0EF85F8898F899923A3
:10085000D1F19081892B808399249394E989FA8935
:100860008081998D892B8083002319F0C7010E9414
:10087000DD038E858F3F39F0EB89FC898081988D6F
:10088000892309F0B12AE989FA899081898D8095B7
:10089000892380838E858F3F11F0F601B082888591
:1008A0009985892B09F044C0110F1111BACFDF913E
:1008B000CF911F910F91FF90EF90DF90CF90BF905D
:1008C000AF909F9008959081809589238083912C8B
:1008D000C5CFE989FA898081998D892B808300238E
:1008E00019F0C7010E94DD038D858F3F49F0EF8528
:1008F000F8898F899A2D9123B9F09081892B808373
:10090000E989FA899081898D8095892380838E85F4
:100910008F3F09F4BFCFEB89FC898081988D8923B3
:1009200009F4B8CFB12AB6CF908180958923E7CF5B
:100930001695BBCFAF92BF92CF92DF92EF92FF920C
:100940000F931F93CF93DF931F92CDB7DEB78C0128
:100950005B016A01DC018D919C911197892B39F023
:100960001296ED91FC91908181819CBD8DBDF80125
:1009700083858F3F19F060E00E9469037501CA0CFE
:10098000DB1CCE14DF04A9F0D7018D917D01898392
:10099000F80180819181892B29F0CE0101960E9476
:1009A0000D03EFCFBE016F5F7F4FC8010E94E803C8
:1009B000E8CFD8011B968C918F3F19F061E00E941F
:1009C000690381E00F90DF91CF911F910F91FF900C
:1009D000EF90DF90CF90BF90AF9008953FB7F8941D
:1009E0008091570490915804A0915904B0915A04F1
:1009F00026B5A89B05C02F3F19F00196A11DB11D7A
:100A00003FBFBA2FA92F982F8827BC01CD01620FB5
:100A1000711D811D911D42E0660F771F881F991F70
:100A20004A95D1F70895AF92BF92CF92DF92EF929D
:100A3000FF920F931F93CF93DF936C017B018B0188
:100A4000040F151FEB015E01AE18BF08C017D107D8
:100A500059F06991D601ED91FC910190F081E02D62
:100A6000C6010995892B79F7C501DF91CF911F91B7
:100A70000F91FF90EF90DF90CF90BF90AF900895CF
:100A8000FC01538D448D252F30E0842F90E0821B94
:100A9000930B541710F0CF96089501970895FC0119
:100AA000918D828D981761F0A28DAE0FBF2FB11D71
:100AB0005D968C91928D9F5F9F73928F90E00895C9
:100AC0008FEF9FEF0895FC01918D828D981731F083
:100AD000828DE80FF11D858D90E008958FEF9FEFD7
:100AE0000895FC01918D228D892F90E0805C9F4FAD
:100AF000821B91098F73992708958BE594E00E94DA
:100B0000710521E0892B09F420E0822F089580E00F
:100B100090E0892B29F00E947D0581110C94000042
:100B20000895FC01A48DA80FB92FB11DA35ABF4F82
:100B30002C91848D90E001968F739927848FA689DC
:100B4000B7892C93A089B1898C91837080648C9330
:100B5000938D848D981306C00288F389E02D8081DF
:100B60008F7D80830895EF92FF920F931F93CF9311
:100B7000DF93EC0181E0888F9B8D8C8D98131AC0D8
:100B8000E889F989808185FF15C09FB7F894EE89BF
:100B9000FF896083E889F98980818370806480831C
:100BA0009FBF81E090E0DF91CF911F910F91FF9067
:100BB000EF900895F62E0B8D10E00F5F1F4F0F730F
:100BC0001127E02E8C8D8E110CC00FB607FCFACFCA
:100BD000E889F989808185FFF5CFCE010E949105D2
:100BE000F1CFEB8DEC0FFD2FF11DE35AFF4FF0829B
:100BF0009FB7F8940B8FEA89FB8980818062CFCF01
:100C0000CF93DF93EC01888D8823B9F0AA89BB8943
:100C1000E889F9898C9185FD03C0808186FD0DC02E
:100C20000FB607FCF7CF8C9185FFF2CF808185FF4F
:100C3000EDCFCE010E949105E9CFDF91CF910895CC
:100C400020912C0430912D042817390771F49091CC
:100C50002A0480912B04981741F0E0912A04F0E0D7
:100C6000E751FC4F808190E008958FEF9FEF08954A
:100C70000895EF92FF920F931F93CF93DF93DC01C0
:100C80005C96ED90FC905D97E114F10479F481E0BD
:100C900090E013969C938E93129790E080E0DF9102
:100CA000CF911F910F91FF90EF9008955196ED9184
:100CB000FC91529750968C915097982F90950FB722
:100CC0005E962C915E97122F127021FD6095F8941C
:100CD0002081112319F1282B2083E7012197F1F7B7
:100CE00028E0462F50E0308160FF1AC0382B308357
:100CF000E7012197F1F7BA0175956795215089F7BA
:100D0000112381F08081892380830FBF5C968D91B0
:100D10009C910197F1F781E090E0C1CF2923DCCFCE
:100D20003923E5CF9081892BEFCF20912C0430918E
:100D30002D042817390761F480912B0420912A048F
:100D400090E0805C9F4F821B91098F7399270895D3
:100D500090E080E0089520912C0430912D04281714
:100D60003907B9F490912A0480912B04981789F0DF
:100D7000E0912A04F0E0E751FC4F808120912A04A1
:100D800030E02F5F3F4F2F73332720932A0490E0EA
:100D900008958FEF9FEF0895E0912C04F0912D04BA
:100DA000E817F90769F4A389B4899C91858980952E
:100DB00089238C9310922D0410922C0481E00895C5
:100DC00080E0089520919F03260F3327331F21329F
:100DD0003105ECF42091C303FC0190E080E0243065
:100DE00069F082E00895A0919F032191AC014158E0
:100DF0005C4FA40FB52FB11D2C930196861798F365
:100E000080919F03680F60939F0380E0089581E0C5
:100E100008958FEF9FEF08958FEF9FEF08958091D2
:100E2000780390E09195819591090895CF93DF9390
:100E3000CB01EA01642F0E94E206CE01DF91CF913F
:100E40000895CF93DF931F92CDB7DEB7698361E03A
:100E5000CE0101960E94E20681E090E00F90DF91C2
:100E6000CF9108950895FC016370668B848195810C
:100E700026813781613039F0633029F0918780878E
:100E80003387228708953187208793878287089543
:100E90002F923F924F925F926F927F928F929F928A
:100EA000AF92BF92CF92DF92EF92FF920F931F9378
:100EB000CF93DF93CDB7DEB76A970FB6F894DEBF56
:100EC0000FBECDBF9A8F898F7A8369834A01D22E54
:100ED00018870F833701BC2CDC0159962D913C916A
:100EE0005A972115310509F015C118968D919C91DD
:100EF0001997681779070CF0D7C11A968D919C91B4
:100F0000481759070CF0D0C14C2C512CB6E0CB9EA1
:100F1000600D711D11247C876B87161617060CF067
:100F2000C3C1EA2DF0E0FA87E98793E0EE0FFF1FD7
:100F30009A95E1F7F88BEF87CF01840F951F18166C
:100F400019060CF0B1C1A98DBA8D58968C918111FA
:100F500004C0BFEABD1508F4D394A98DBA8DED91F4
:100F6000FC9111970284F385E02DCD010995B5E040
:100F7000DB9EC0011124E981FA81FC83EB83312CD3
:100F8000212C9C0128593F4F388F2F8B4A2D50E040
:100F90005E8B4D8BEF89F88DE20DF31D44919E829F
:100FA0008D82D12CC12C69817A81620D731D7A8B5F
:100FB000698B842F90E09C8B8B8BE98DFA8DA081BF
:100FC000B18140FF82C0F1E0BF126FC0AF126DC0AF
:100FD0001C96ED91FC912F813885A4014C0D5D1D6F
:100FE00069897A89898D9A8D0995EB89FC89F595AE
:100FF000E7954E2F5FEFC51AD50A6D817E818D89E9
:101000009E89680F791F7E836D8398E0C916D1048D
:1010100081F6AFEF2A1A3A0AEB81FC81E40DF51D47
:10102000FC83EB83F5E02F16310409F0B3CF2F8159
:10103000388526153705B9F0A98DBA8DED91FC914B
:10104000B1E0BB1257C0AB1255C069817A816B5FAA
:101050007F4F0088F189E02D830128E030E0A40172
:10106000898D9A8D0995A98DBA8DED91FC91119775
:101070000688F789E02DCD016A960FB6F894DEBF99
:101080000FBECDBFDF91CF911F910F91FF90EF90D9
:10109000DF90CF90BF90AF909F908F907F906F9098
:1010A0005F904F903F902F9009941E96ED91FC9188
:1010B000EF80F88409851A8592014D815E816B81EC
:1010C0007C81898D9A8D099590CF2F813885261541
:1010D000370509F48ACF31E0B31207C0A31205C067
:1010E0001C96ED91FC91930178CF1E96ED91FC91A9
:1010F0007301E0CF6B857C85641975090684F785DB
:10110000E02D73010F8518899201A401898D9A8DB4
:101110000995A9CFF901349694913297459154914C
:10112000D91AB7E0DB9E400D511D1124F90125911C
:1011300034913C8B2B8BFA0125903490FA01329636
:10114000749031963491398B3296649031964490F4
:1011500041E04C1518F04A1508F07FC0662D062CAA
:10116000000C770B7C836B83842D042C000C990B73
:101170009E838D83A98DBA8DED91FC911197028488
:10118000F385E02DCD010995512CD12CC12CEA2DF0
:10119000F0E0FA87E9872B2D30E03C872B87A4010C
:1011A000440D511D47FC5A95588F4F8B69817A81A8
:1011B000660D711D67FC7A957E876D877989C716E4
:1011C00008F051CF2C2D30E04D815E81420F531F2E
:1011D000A985BA854A9FC0014B9F900D5A9F900DDB
:1011E0001124FC01E80DF91DF88BEF87852D612C8A
:1011F0004F89588D420F531F5E8B4D8B671408F03B
:1012000050C044244394480E877041F4C1010196B4
:10121000EB89FC89E20DF31DD4901C01D7FE19C0A7
:10122000A98DBA8DED91FC91662D70E0B1E0BB12F5
:1012300019C0AB1217C02D853E85620F731F048441
:10124000F585E02D2F8138854D895E89898D9A8DB0
:101250000995DD0C6394842DD1CF1E821D821C82E2
:101260001B8288CF4B815C81640F751FAB85BC8569
:101270006A9FC0016B9F900D7A9F900D1124698128
:101280007A81680F791F0684F785E02DEF80F88456
:1012900009851A859D014F855889898D9A8D0995F3
:1012A000D8CF570CC3948ACF6A960FB6F894DEBF96
:1012B0000FBECDBFDF91CF911F910F91FF90EF90A7
:1012C000DF90CF90BF90AF909F908F907F906F9066
:1012D0005F904F903F902F9008958F929F92AF9282
:1012E000CF92EF92FF920F931F93CF93DF93EC0176
:1012F000262F898D9A8D009709F051C06A30D1F45C
:101300001D861C868D8948E0849F900111248E855E
:101310009F85820F931F9F878E8781E090E0DF91EA
:10132000CF911F910F91FF90EF90CF90AF909F9032
:101330008F9008956D3089F3CC88AD888F8988238C
:10134000C1F08C859D8536E0C39E800D911D1124D2
:10135000488559854817590764F44E855F851D8671
:101360001C8638E0A39EC0011124840F951F9F871F
:101370008E87EA88FB88088919894E855F856C8588
:101380007D85CE010E9448072C898C859D8546E08D
:10139000249F800D911D11249D878C87BECF6A30BC
:1013A00069F41D861C86FC013896E4912D898E8592
:1013B0009F85E29F800D911D1124ADCF6D3009F402
:1013C000ACCFFC0134963491631708F4A6CF329663
:1013D000E491E61708F4A1CFFC0132968590949031
:1013E000462F431B342F47E0349F800C911C11245F
:1013F000F401329634913196E4913323A9F1EE232E
:1014000099F1CC88F4013596E491AD884F89442355
:1014100001F10E2E000CFF0BE30FF11DCE9EA0017B
:10142000CF9E500D11246C857D85460F571F688512
:101430007985641775076CF44E855F851D861C865B
:10144000FC013896E491AE9E400D511D11245F873A
:101450004E87EA88FB88088919894E855F856C85E7
:101460007D85CE010E944807F4013496E4912C89D1
:101470008C859D85E29F800D911D11248DCF6F92EB
:101480007F928F929F92AF92BF92CF92DF92EF9214
:10149000FF920F931F93CF93DF93EC016B015A01DF
:1014A00039014801E881F9810284F385E02D09952D
:1014B000E881F9810288F389E02D87019301A50174
:1014C000B601CE010995A501480D591D415051099C
:1014D000E881F9810288F389E02D9301B601CE01FC
:1014E0000995E881F9810088F189E02D9401A50131
:1014F000B601CE010995C60CD71CB6016150710921
:10150000E881F9810088F189E02D9401A501CE01DF
:101510000995E881F9810688F789E02DCE01DF91F0
:10152000CF911F910F91FF90EF90DF90CF90BF90E0
:10153000AF909F908F907F906F9009946F927F9261
:101540008F929F92AF92BF92CF92DF92EF92FF92D3
:101550000F931F93CF93DF935C01EB016A01490165
:1015600038018701DC01ED91FC916217730719F5D1
:10157000641675062CF0962D872D3A01C92ED82EAB
:101580009601261937092F5F3F4F048CF58DE02D0A
:10159000A301BE01C5010995DF91CF911F910F9164
:1015A000FF90EF90DF90CF90BF90AF909F908F9083
:1015B0007F906F9008954615570591F426173707C9
:1015C00024F0892D4B01C22FD82F9E0128193909EB
:1015D0002F5F3F4F068CF78DE02DA601B401DACFC7
:1015E0000284F385E02D0995D501ED91FC910488E5
:1015F000F589E02D83019401A601BE01C50109957D
:10160000D501ED91FC910688F789E02DC501DF91A8
:10161000CF911F910F91FF90EF90DF90CF90BF90EF
:10162000AF909F908F907F906F900994EF92FF9270
:101630000F931F93DC011A960D911C911B9718961E
:101640002D913C911997ED91FC9100A0F1A1E02D15
:101650007B0150E040E070E060E009951F910F9140
:10166000FF90EF9008954F925F926F927F928F92CA
:101670009F92AF92BF92CF92DF92EF92FF920F9321
:101680001F93CF93DF936C012B015A01390148015D
:10169000DC01ED91FC910284F385E02D0995E201D6
:1016A000640C751CD601ED91FC91C615D7055CF450
:1016B0000088F189E02D87019401A501BE01C601D2
:1016C00009952196EFCF0688F789E02DC601DF91B5
:1016D000CF911F910F91FF90EF90DF90CF90BF902F
:1016E000AF909F908F907F906F905F904F900994F4
:1016F0008F929F92AF92BF92CF92DF92EF92FF9222
:101700000F931F93CF93DF93EC015B014A016901B3
:10171000E881F9810284F385E02D099595012C0D6E
:101720003D1D21503109E881F9810488F589E02DBA
:1017300078018401A401B501CE010995E881F98100
:101740000688F789E02DCE01DF91CF911F910F918F
:10175000FF90EF90DF90CF90BF90AF909F908F90D1
:1017600009948F929F92AF92BF92CF92DF92EF92A5
:10177000FF920F931F93CF93DF93EC015B014A011C
:1017800069017801E881F9810284F385E02D0995EA
:10179000C80CD91C860101501109E881F98104881F
:1017A000F589E02D9501A401B501CE010995E881E7
:1017B000F9810688F789E02DCE01DF91CF911F9145
:1017C0000F91FF90EF90DF90CF90BF90AF909F90E0
:1017D0008F900994EF92FF920F931F93DC01ED918C
:1017E000FC9100A0F1A1E02D09951F910F91FF90B0
:1017F000EF9008950F931F93DC01ED91FC91068CFF
:10180000F78DE02D09951F910F9108950F931F9368
:10181000DC01ED91FC91048CF58DE02D09951F9173
:101820000F910895DC01ED91FC910084F185E02D8C
:1018300009942F923F924F925F926F927F928F9274
:101840009F92AF92BF92CF92DF92EF92FF920F934F
:101850001F93CF93DF9300D000D000D0CDB7DEB779
:101860003C016A013E832D83FC82EB825801A41A5D
:10187000B50AB7FE03C0B194A194B1088D809E80D3
:10188000861A970A97FE03C09194819491088A144E
:101890009B045CF0902F812F0D811E819D838E8390
:1018A0009C2D8D2D6B01692F782F0C151D055CF07B
:1018B0009D818E817E836D83692F782F902F812F5C
:1018C0008601C92ED82E1601201A310A2B012D812E
:1018D0003E81421A530A57FE03C051944194510865
:1018E000710137FE03C03FEFE31AF30AF594E79462
:1018F0008D819E81861797075CF5A1E0B0E0BA83E1
:10190000A983C016D1064CF1D301ED91FC9104845A
:10191000F585E02D2B813C81A8016D817E818A14A3
:101920009B041CF04D815E81B801C3010995E41848
:10193000F508F7FE0AC02D813E8189819A81280F22
:10194000391F3E832D83E20CF31C0F5F1F4FD9CF4D
:101950002FEF3FEF3A832983D4CF26960FB6F89422
:10196000DEBF0FBECDBFDF91CF911F910F91FF90D2
:10197000EF90DF90CF90BF90AF909F908F907F902F
:101980006F905F904F903F902F9008950F931F930B
:10199000CF93DF931F92CDB7DEB78C01698360E0F0
:1019A000FC01868D0E94690341E050E0BE016F5F3B
:1019B0007F4FF801838D948D0E949A040F90DF91E0
:1019C000CF911F910F910895CF93C82F87FDCFE737
:1019D000C093360561E287E195E00E94C60C6C2F4A
:1019E000606887E195E00E94C60C60E287E195E0BF
:1019F000CF910C94C60CCF92DF92EF92FF92CF93CF
:101A00008091340587FD1CC061E00E94970360E06F
:101A1000809134050E9469030E94EE046B017C01F1
:101A20000E94EE046C197D098E099F09683E73407F
:101A300081059105A8F361E0809134050E94690356
:101A4000C0913705C83008F0C7E0C093370561E2A0
:101A500087E195E00E94C60C6C2F606187E195E0FC
:101A60000E94C60C60E287E195E00E94C60C80915E
:101A700036050E94E40C60E287E195E00E94C60C06
:101A80006CE087E195E0CF91FF90EF90DF90CF90F1
:101A90000C94C60CFF920F931F93CF93DF939091FA
:101AA0003805992339F0809139058F5F8917E8F55A
:101AB00080933905D0913C05D695D695D69584E589
:101AC000D89F8001112480913D0586958695869545
:101AD0008D1780F16D2F606487E195E00E94C60C40
:101AE000C0913A05F0903B056C2F606887E195E066
:101AF0000E94C60C61E0809135050E9469034F2D5C
:101B000050E06C2F70E0461B570B4F5F5F4F600F2C
:101B1000711F60507F4F80913205909133050E9474
:101B20009A04DF5F0C5A1F4FCECF109239050E94E6
:101B3000FB0CC0CF60E487E195E00E94C60C83E512
:101B400080933A0510923B058FE280933C051092FA
:101B50003D05DF91CF911F910F91FF9008951F9345
:101B6000CF93DF93EC01162F60E20E94C60C6CE06D
:101B700011116DE0CE01DF91CF911F910C94C60C35
:101B8000FC0177FD55C080859185681779070CF0B9
:101B90004FC057FD4DC082859385481759070CF0FB
:101BA00047C08689823009F444C0833009F44EC0AE
:101BB000813031F48FE290E0861B970BBA01AC01C3
:101BC000842FA62F93A1691708F4962F93A394A1AD
:101BD0009A1708F49A2F94A395A1891708F4982FBF
:101BE00095A396A1981708F4982F96A3CA0157FDBC
:101BF0000796E3E095958795EA95E1F7A4E5A89F18
:101C0000F001A99FF00D1124E60FF71FE050FF4FE0
:101C1000CA0168E070E00E94AB1C41E050E001C0E6
:101C2000440F8A95EAF78081232BB9F0842B8083B7
:101C3000089583E590E0DC01A61BB70BBD018FE2A0
:101C400090E0DC01A41BB50BAD01BACF83E590E0B9
:101C5000841B950BAB01BC01B3CF40958423E7CF28
:101C6000089590E080E00895E0E0F1E088EF91E0F1
:101C7000DF019C011D9221503040E1F710923A059E
:101C800080913B05833508F483E580933B051092F2
:101C90003C0580913D058F3208F48FE280933D052D
:101CA0001092240510922305109226051092250506
:101CB00008950E94201EFB0101900020E9F7319752
:101CC000AF01461B570BDC01ED91FC910280F381C3
:101CD000E02D09948F929F92AF92BF92EF92FF9264
:101CE0000F931F93CF93DF93CDB7DEB7A1970FB6B6
:101CF000F894DEBF0FBECDBF7C01FA01CB0119A263
:101D0000223008F42AE08E010F5D1F4F822E912CA5
:101D1000B12CA12CBF01A50194010E94BF1CF901A7
:101D2000CA016A300CF5605DD8016E938D01232BDA
:101D3000242B252B79F790E080E0109721F0BD014E
:101D4000C7010E945B0EA1960FB6F894DEBF0FBECE
:101D5000CDBFDF91CF911F910F91FF90EF90BF907A
:101D6000AF909F908F900895695CDECFCF93DF9303
:101D70006EE473E087E195E00E945B0EEC0160E5A4
:101D800073E087E195E00E945B0E8C0F9D1FDF9151
:101D9000CF9108952F923F924F925F926F927F92D0
:101DA0008F929F92AF92BF92CF92DF92EF92FF926B
:101DB0001F93CF93DF93EC016A017B01722EAB017D
:101DC0009601CB01B6010E94A61C63E573E0811168
:101DD00026C046015701E894B7F82FEF3FEF4FE7D1
:101DE0005FE7C501B4010E94A61C81110CC02FEF52
:101DF0003FEF4FE75FE7C501B4010E94DC1A67E5DA
:101E000073E0181664F02FEF3FEF4FE75FE4C70170
:101E1000B6010E94341C1816B4F46BE573E0CE01D1
:101E2000DF91CF911F91FF90EF90DF90CF90BF9007
:101E3000AF909F908F907F906F905F904F903F906A
:101E40002F900C945B0E2FEF3FEF4FE75FECC70135
:101E5000B6010E94DC1A87FDE0CF20E030E0A90146
:101E6000C701B6010E94DC1A312C212C87FF0DC05E
:101E7000E881F9810190F081E02D6DE2CE010995B4
:101E80001C01F7FAF094F7F8F09410E060E070E0CD
:101E900080E09FE3711641F020E030E040E251E441
:101EA0000E94E11A1F5FF6CFA70196010E94701AE7
:101EB0002B013C010E94531B4B015C012AE0BC0139
:101EC000A401CE010E946A0E7C01E20CF31C1123D6
:101ED000E1F1C501B4010E94821B9B01AC01C30169
:101EE000B2010E946F1A4B015C01E881F9810190F7
:101EF000F081E02D6EE2CE010995E80EF91E115039
:101F000020F120E030E040E251E4C501B4010E943C
:101F1000391C2B013C010E94531B4B01B12CA12CFD
:101F20002AE0B501A401CE010E946A0EE80EF91E56
:101F3000C501B4010E94821B9B01AC01C301B20127
:101F40000E946F1A4B015C01DACFC701DF91CF917C
:101F50001F91FF90EF90DF90CF90BF90AF909F9038
:101F60008F907F906F905F904F903F902F9008954B
:101F7000CF93DF93AB01BC0122E08BE594E00E949C
:101F8000CA0EEC0160E573E08BE594E00E945B0E05
:101F90008C0F9D1FDF91CF9108951F93CF93DF93F7
:101FA00085ED8093BC0080917B0390917C03A09190
:101FB0007D03B0917E030796A11DB11D23E0B69568
:101FC000A795979587952A95D1F72091BC0024FD78
:101FD00003C01092C30352C040917B0350917C0315
:101FE00060917D0370917E03452B462B472B69F34F
:101FF0000097A105B10541F02AE22A95F1F700C04A
:102000000197A109B109E1CF80917A03C1E0C093A2
:102010007903882399F1D091B8001091BA0080918A
:10202000BC008A7B8093BC0060E082E10E9469036F
:1020300060E083E10E9469031092C303C093C5036B
:102040001092C40361E082E10E94690361E083E1D0
:102050000E9469038091B9008E7F8093B9008091BE
:10206000B9008D7F8093B90088E48093B80085E43F
:102070008093BC001093BA00D093B800DF91CF9149
:102080001F9108951F920F920FB60F9211242F9354
:102090003F938F939F93AF93BF93809153049091FD
:1020A0005404A0915504B09156043091520423E099
:1020B000230F2D3758F50196A11DB11D2093520411
:1020C0008093530490935404A0935504B093560402
:1020D0008091570490915804A0915904B0915A04EA
:1020E0000196A11DB11D8093570490935804A093AD
:1020F0005904B0935A04BF91AF919F918F913F9132
:102100002F910F900FBE0F901F90189526E8230F68
:102110000296A11DB11DD2CF1F920F920FB60F9242
:1021200011242F933F934F935F936F937F938F93DC
:102130009F93AF93BF93EF93FF938BE594E00E943F
:102140009105FF91EF91BF91AF919F918F917F91F9
:102150006F915F914F913F912F910F900FBE0F9014
:102160001F9018951F920F920FB60F9211242F9364
:102170008F939F93EF93FF93E0916B04F0916C0426
:102180008081E0917104F091720482FD1BC0908106
:10219000809174048F5F8F7320917504821741F0D2
:1021A000E0917404F0E0E55AFB4F958F809374043E
:1021B000FF91EF919F918F912F910F900FBE0F90F4
:1021C0001F9018958081F4CF1F920F920FB60F9237
:1021D00011242F933F934F935F936F937F938F932C
:1021E0009F93AF93BF93EF93FF93E0912C04F091F3
:1021F0002D04309749F0A685B7858585968D91FF8A
:1022000014C09C918923A1F4FF91EF91BF91AF91EC
:102210009F918F917F916F915F914F913F912F91FE
:102220000F900FBE0F901F9018959C91892361F716
:10223000A389B4899C918589809589238C9386890B
:1022400097890197F1F7608D718DA685B7855585C2
:1022500038E020E0CB010197F1F7822F90E09595CF
:102260008795282F4C91452309F02068315091F72C
:10227000868D81FD209580912B0490E001968F73CF
:10228000992730912A04381799F0A0912B04B0E0D7
:10229000A751BC4F2C9380932B04828D938D019773
:1022A000F1F7A389B4898C919589892B8C93ACCF54
:1022B000868D8160868FF1CF1F920F920FB60F929D
:1022C00011242F933F934F935F936F937F938F933B
:1022D0009F93AF93BF93EF93FF938091B900887F53
:1022E000803609F44AC0F0F5883209F4A5C018F523
:1022F000803109F499C0B8F4882309F4F5C0883016
:1023000009F492C0FF91EF91BF91AF919F918F918E
:102310007F916F915F914F913F912F910F900FBEE1
:102320000F901F901895883109F486C0803251F7BC
:102330008093C20314C0803409F49BC040F48033FE
:10234000B9F38833F9F68093C20385ECAEC08035CB
:1023500009F483C0883509F494C0883499F60E9442
:10236000CD0FD0CF883909F48AC038F5883729F0E5
:1023700050F4883611F0803729F683E08093C30348
:102380001092C10355C0883809F479C0803919F01A
:10239000803809F0B7CF8091C103803208F06FC058
:1023A000E091C10381E08E0F8093C1038091BB0057
:1023B000F0E0EF55FC4F80833BC0803B39F0D0F418
:1023C000803A09F477C0883A09F09CCF84E0809382
:1023D000C3031092A00310929F03F0E0E0E0099580
:1023E00080919F0381110FC081E080939F03109221
:1023F0007F0309C0803C09F4A8CF883C09F4A5CF2D
:10240000883B09F07FCFE091A00381E08E0F80939D
:10241000A003F0E0E158FC4F80818093BB009091D5
:10242000A00380919F0329C08091E8038093BB00A3
:1024300085EC8093BC0066CF9091E7038091E60322
:10244000981758F5E091E70381E08E0F8093E7033A
:10245000F0E0EA53FC4F8081E9CFE091E70381E0AF
:102460008E0F8093E7038091BB00F0E0EA53FC4FAE
:1024700080839091E7038091E6039817C8F285E87E
:10248000D8CFE091E70381E08E0F8093E70380913E
:10249000BB00F0E0EA53FC4F80838091C5038111BB
:1024A0005ECF81E08093C40384EA8093BC001092E5
:1024B000C30328CF85EC8093BC001092C3038091A6
:1024C000C103803230F4E091C103F0E0EF55FC4FDE
:1024D00010826091C10370E081EA93E0F0E0E0E0F7
:1024E00009951092C1030ECF1092C20338CFCF923C
:1024F000DF92EF92FF92CF9310925E0410925D04F0
:1025000098EEC92E93E0D92EE12CF12CC0925F04F5
:10251000D0926004E0926104F092620482E093E061
:1025200090935C0480935B0485EC90E09093680446
:102530008093670484EC90E090936A04809369042C
:1025400080EC90E090936C0480936B0481EC90E0BD
:1025500090936E0480936D0482EC90E090937004ED
:1025600080936F0486EC90E09093720480937104E2
:1025700010927404109275041092760410927704ED
:1025800010921A051092190524E530E030931C05CD
:1025900020931B0580E390E090931E0580931D051A
:1025A0003093200520931F059093220580932105E9
:1025B00010922D05109224051092230510922605E5
:1025C00010922505C1E0C0932C05C0932B058FEF19
:1025D0009FEF90932A058093290590932805809377
:1025E0002705C0932E0510922F05109231051092E9
:1025F000300586E293E090931805809317058CE1EF
:1026000090E00E94FB1CDC0111961C921E92139616
:102610001C921E9212978AE01B968C931B978DE05A
:102620001C968C931C978FEF1E968C931E978CE0B4
:102630001D968C931D97E8EBF5E0E491F0E0EE0F2A
:10264000FF1FEC55FA4F8591949156969C938E936B
:102650005597EAE9F5E0E4915A96EC935A97EAEB3C
:10266000F5E0E491F0E0EE0FFF1FEC55FA4F859195
:10267000949150969C938E931F97ECE9F5E0E4912A
:102680005796EC935797EBEBF5E0E491F0E0EE0F03
:10269000FF1FEC55FA4F8591949152969C938E931F
:1026A0005197EDE9F5E0E4915996EC93599740E0A4
:1026B00059E06DE370E014964D935D936D937C93B8
:1026C000179781E090E019969C938E9318971A962D
:1026D0001C921A975B961C925B97B0933305A0935C
:1026E00032058BE08093350589E0809334051092A4
:1026F000FB041092FA04C092FC04D092FD04E09214
:10270000FE04F092FF0484E193E09093F904809337
:10271000F80410920F0510920E05109211051092F8
:1027200010051092130510921205109215051092C3
:102730001405609116056E7F6D7F60931605669592
:1027400061706C2781E00E94690361E081E00E9472
:102750009703E1E9F5E0E491E0930805EFEAF5E09D
:10276000E491F0E0EE0FFF1FEC55FA4F8591949144
:1027700090930A058093090560E080E00E9497032A
:102780008091160581FD04C061E080E00E9469032C
:1027900010920405E0E9F5E0E491E0930505EEEA26
:1027A000F5E0E491F0E0EE0FFF1FEA57FA4F859154
:1027B00094919093070580930605CF91FF90EF9039
:1027C000DF90CF900895CF93DF93CDB7DEB76497B6
:1027D0000FB6F894DEBF0FBECDBF789484B582608B
:1027E00084BD84B5816084BD85B5826085BD85B5B5
:1027F000816085BD80916E00816080936E00109233
:1028000081008091810082608093810080918100AD
:10281000816080938100809180008160809380003E
:102820008091B10084608093B1008091B00081609C
:102830008093B00080917A00846080937A008091C8
:102840007A00826080937A0080917A008160809320
:102850007A0080917A00806880937A001092C1009B
:10286000E0916B04F0916C0482E08083E091670456
:10287000F09168041082E0916904F0916A048FEC91
:10288000808310927304E0916F04F091700486E0ED
:102890008083E0916D04F0916E048081806180837B
:1028A000E0916D04F0916E04808188608083E091F6
:1028B0006D04F0916E04808180688083E0916D04E6
:1028C000F0916E0480818F7D808360E08EE00E94B5
:1028D000970360E08FE00E94970360E080E10E9430
:1028E000970360E081E10E94970360E085E00E9429
:1028F000970360E086E00E94970360E087E00E9413
:10290000970360E088E00E94970360E083E10E9403
:10291000970360E082E10E94970361E081E00E94FA
:10292000970361E082E00E94970361E083E00E94E8
:10293000970361E084E00E949703809132059091B3
:1029400033059A838983DC011B968C918F3F49F074
:1029500061E00E94970361E0E981FA8183850E942A
:102960006903A981BA818D919C91892B09F4EBC1EE
:102970001FB7F89480912904811127C0E8EBF5E096
:102980008491EAE9F5E09491E82FF0E0EE0FFF1F63
:10299000E859FA4FA591B491EC91E92321F461E053
:1029A0008AE00E94690361E08AE00E9497038CB587
:1029B00080618CBD8CB580648CBD61E08DE00E942F
:1029C000970361E08BE00E949703809129048F5F59
:1029D000809329041FBF81E0E981FA81838F61E040
:1029E000809135050E9497038091340587FD03C0CF
:1029F00061E00E94970384E08093370588E280932A
:102A0000360510923805109239050E94FB0C109281
:102A10003A0580913B05833508F483E580933B05B7
:102A200010923C0580913D058F3208F48FE280932F
:102A30003D050E944A0D82E30E94E40C0E94340E80
:102A400000E010E083E10E944003BC01990F880B75
:102A5000990B0E94841B6D837E838F83988760937C
:102A60004E0470934F04809350049093510482E17C
:102A70000E944003BC01990F880B990B0E94841B94
:102A800060934A0470934B0480934C0490934D04DC
:102A900020E030E040E85FE36D817E818F819885A2
:102AA0000E94DC1A81115DC380E197E29A878987D1
:102AB0008EE00E94C803BC01990F880B990B0E94FD
:102AC000841B2B013C0140924604509247046092C3
:102AD0004804709249048FE00E94C803BC01990F1A
:102AE000880B990B0E94841B4B015C01809242046D
:102AF00090924304A0924404B092450480E10E9465
:102B0000C803BC01990F880B990B0E94841B6B01B1
:102B10007C01C0923E04D0923F04E0924004F092C7
:102B2000410481E10E94C803BC01990F880B990BF5
:102B30000E94841B69837A838B839C8360933A040D
:102B400070933B0480933C0490933D04A985BA851F
:102B50001197BA87A987AB2B09F0AACF2AE038E2F0
:102B600040EA5BE3C301B2010E94391C2B013C0126
:102B7000409246045092470460924804709249047F
:102B80002AE038E240EA5BE3C501B4010E94391C47
:102B90004B015C018092420490924304A092440451
:102BA000B09245042AE038E240EA5BE3C701B6018F
:102BB0000E94391C6B017C01C0923E04D0923F04FC
:102BC000E0924004F09241042AE038E240EA5BE3FC
:102BD00069817A818B819C810E94391C69837A8307
:102BE0008B839C8360933A0470933B0480933C04F2
:102BF00090933D0485E00E944003BC01990F880B2F
:102C0000990B0E94841B69877A878B879C876093C6
:102C1000360470933704809338049093390486E027
:102C20000E944003BC01990F880B990B0E94841BE2
:102C30006D877E878F87988B6093320470933304FF
:102C4000809334049093350487E00E944003BC01D4
:102C5000990F880B990B0E94841B698B7A8B8B8B45
:102C60009C8B60932E0470932F0480933004909378
:102C7000310488E00E94400320E030E0A90169852A
:102C80007A858B859C850E94DC1A81118DC02AE98A
:102C900039E949E950ECC301B2010E94391C609343
:102CA000460470934704809348049093490420E0BD
:102CB00030E0A9016D857E858F8598890E94DC1A98
:102CC000811185C02AE939E949E950ECC501B4010F
:102CD0000E94391C6093420470934304809344041F
:102CE0009093450420E030E0A90169897A898B89B5
:102CF0009C890E94DC1A81117DC02AE939E949E9E1
:102D000050ECC701B6010E94391C60933E047093D9
:102D10003F04809340049093410420E030E0A901F7
:102D200069857A858B859C850E94DC1A811175C026
:102D30002AE939E949E950EC69817A818B819C81E2
:102D40000E94391C80C061E0E981FA8184850E947B
:102D50009703A981BA811A968C911A978B7FF9F4FF
:102D600060E01C968C910E946903A981BA811D962E
:102D70008C918F3F49F061E00E94970361E0E98107
:102D8000FA8185850E946903A981BA811E968C917A
:102D90008F3F09F420CE60E00E9497031CCE61E0D3
:102DA000E981FA818485DFCF20E030E04AE754E40E
:102DB000C301B2010E94E11A20E030E84DE655E47B
:102DC0000E94391CA30192010E94701A68CF20E072
:102DD00030E04AE754E4C501B4010E94E11A20E062
:102DE00030E84DE655E40E94391CA50194010E948B
:102DF000701A70CF20E030E04AE754E4C701B60112
:102E00000E94E11A20E030E84DE655E40E94391CAA
:102E1000A70196010E94701A78CF20E030E04AE7BF
:102E200054E469817A818B819C810E94E11A20E0BF
:102E300030E84DE655E40E94391C29813A814B81E6
:102E40005C810E94701A60933A0470933B048093F3
:102E50003C0490933D04C0904604D0904704E09019
:102E60004804F090490420E030E040EA51E4C70112
:102E7000B6010E94341C181654F020E030E040EAFD
:102E800051ECC701B6010E94DC1A87FFACC220E0FA
:102E900030E040E85FE36D817E818F8198850E94FC
:102EA000DC1A8111A0C261E081E00E946903C09038
:102EB0004204D0904304E0904404F090450420E0A4
:102EC00030E040EA51E4C701B6010E94341C1816F4
:102ED00054F020E030E040EA51ECC701B6010E9416
:102EE000DC1A87FF9EC220E030E040E85FE360919B
:102EF0004E0470914F0480915004909151040E94AF
:102F0000DC1A81118EC261E082E00E946903C090E8
:102F10003E04D0903F04E0904004F090410420E053
:102F200030E040EA51E4C701B6010E94341C181693
:102F300054F020E030E040EA51ECC701B6010E94B5
:102F4000DC1A87FF8AC220E030E040E85FE360914E
:102F50004E0470914F0480915004909151040E944E
:102F6000DC1A81117AC261E083E00E946903C0909B
:102F70003A04D0903B04E0903C04F0903D0420E003
:102F800030E040EA51E4C701B6010E94341C181633
:102F900054F020E030E040EA51ECC701B6010E9455
:102FA000DC1A87FF76C220E030E040E85FE3609102
:102FB0004E0470914F0480915004909151040E94EE
:102FC000DC1A811166C261E084E00E94690320E09E
:102FD00030E040E85FE360914A0470914B048091D7
:102FE0004C0490914D040E94DC1A811156C08091CE
:102FF000120590911305892B21F180912C04909159
:103000002D04A4E0883F9A07E1F0009711F00E9498
:10301000CC06809116058E7F8093160510922B04A6
:1030200010922A0488EF94E090932D0480932C044E
:10303000E0910B05F0910C05808190910D05892B95
:103040008083609146047091470480914804909178
:1030500049040E94B80F609142047091430480912A
:103060004404909145040E94B80F60913E04709111
:103070003F0480914004909141040E94B80F6091F8
:103080003A0470913B0480913C0490913D040E946D
:10309000B80F88EF94E00E94CC0664E673E087E105
:1030A00095E00E945B0E4091460450914704609168
:1030B00048047091490422E087E195E00E94CA0E1D
:1030C0000E94B60E69E673E087E195E00E945B0E10
:1030D000409142045091430460914404709145042E
:1030E00022E087E195E00E94CA0E0E94B60E6EE6CD
:1030F00073E087E195E00E945B0E40913E045091A1
:103100003F04609140047091410422E087E195E022
:103110000E94CA0E0E94B60E63E773E087E195E055
:103120000E945B0E40913A0450913B0460913C0434
:1031300070913D0422E087E195E00E94CA0E0E9452
:10314000B60E0E944A0D0E94340E0115110509F4B5
:1031500079CC0E947D05882309F474CC0E9400007C
:1031600071CC20E030E0A9016D817E818F8198854E
:103170000E94DC1A81116FCEE8E9FAE3FA83E98351
:103180008EE00E94C803BC01990F880B990B0E9426
:10319000841B6B017C0120914604309147044091CF
:1031A0004804509149040E94341C181644F4C092FB
:1031B0004604D0924704E0924804F09249048FE01C
:1031C0000E94C803BC01990F880B990B0E94841BB5
:1031D0006B017C01209142043091430440914404EE
:1031E000509145040E94341C181644F4C0924204C5
:1031F000D0924304E0924404F092450480E10E949E
:10320000C803BC01990F880B990B0E94841B6B01AA
:103210007C0120913E0430913F0440914004509144
:1032200041040E94341C181644F4C0923E04D0920B
:103230003F04E0924004F092410481E10E94C803FF
:10324000BC01990F880B990B0E94841B6B017C01B8
:1032500020913A0430913B0440913C0450913D044C
:103260000E94341C181644F4C0923A04D0923B04D5
:10327000E0923C04F0923D0489819A8101979A83FF
:103280008983892B09F07CCF2AE038E240EA5BE3AE
:1032900060914604709147048091480490914904DC
:1032A0000E94391C6B017C0120E030E04AE754E4C5
:1032B0000E94E11A20E030E84DE655E40E94391CF6
:1032C000A70196010E94701A21E834E045E35FE30C
:1032D0000E94391C6093460470934704809348040D
:1032E000909349042AE038E240EA5BE360914204AB
:1032F0007091430480914404909145040E94391CCC
:103300006B017C0120E030E04AE754E40E94E11ABE
:1033100020E030E84DE655E40E94391CA7019601F3
:103320000E94701A21E834E045E35FE30E94391CF3
:103330006093420470934304809344049093450443
:103340002AE038E240EA5BE360913E0470913F047A
:1033500080914004909141040E94391C6B017C01D2
:1033600020E030E04AE754E40E94E11A20E030E82F
:103370004DE655E40E94391CA70196010E94701A7F
:1033800021E834E045E35FE30E94391C60933E048A
:1033900070933F0480934004909341042AE038E204
:1033A00040EA5BE360913A0470913B0480913C04F5
:1033B00090913D040E94391C6B017C0120E030E0BB
:1033C0004AE754E40E94E11A20E030E84DE655E473
:1033D0000E94391CA70196010E94701A21E834E06E
:1033E00045E35FE3ADCC2AE939E941E651E4C701A1
:1033F000B6010E94341C181664F420E030E0A901E4
:103400006D817E818F8198850E94DC1A882309F462
:103410004ACD6FE573E087E195E00E945B0E60E0C6
:1034200043CD2AE939E941E651E4C701B6010E94DA
:10343000341C181684F420E030E0A90160914E0499
:1034400070914F0480915004909151040E94DC1AB5
:10345000882309F458CD60E057CD2AE939E941E6DF
:1034600051E4C701B6010E94341C181684F420E010
:1034700030E0A90160914E0470914F048091500496
:10348000909151040E94DC1A882309F46CCD60E00D
:103490006BCD2AE939E941E651E4C701B6010E9442
:1034A000341C181684F420E030E0A90160914E0429
:1034B00070914F0480915004909151040E94DC1A45
:1034C000882309F480CD60E07FCD84E193E0909380
:1034D000F9048093F80488EF94E00C94CC065058DB
:1034E000BB27AA270E94871A0C94FA1B0E94EC1B88
:1034F00038F00E94F31B20F039F49F3F19F426F4B2
:103500000C94E91B0EF4E095E7FB0C94E31BE92F08
:103510000E940B1C58F3BA176207730784079507BC
:1035200020F079F4A6F50C942D1C0EF4E0950B2EEA
:10353000BA2FA02D0B01B90190010C01CA01A00105
:103540001124FF27591B99F0593F50F4503E68F160
:103550001A16F040A22F232F342F4427585FF3CFA1
:10356000469537952795A795F0405395C9F77EF472
:103570001F16BA0B620B730B840BBAF09150A1F0BB
:10358000FF0FBB1F661F771F881FC2F70EC0BA0F41
:10359000621F731F841F48F4879577956795B795C9
:1035A000F7959E3F08F0B0CF9395880F08F09927C4
:1035B000EE0F9795879508950E94BF1B08F481E050
:1035C00008950E94F51A0C94FA1B0E94F31B58F000
:1035D0000E94EC1B40F029F45F3F29F00C94E31BA0
:1035E00051110C942E1C0C94E91B0E940B1C68F3C7
:1035F0009923B1F3552391F3951B550BBB27AA27AC
:1036000062177307840738F09F5F5F4F220F331FE5
:10361000441FAA1FA9F335D00E2E3AF0E0E832D0AD
:1036200091505040E695001CCAF72BD0FE2F29D0B0
:10363000660F771F881FBB1F261737074807AB0782
:10364000B0E809F0BB0B802DBF01FF2793585F4FF7
:103650003AF09E3F510578F00C94E31B0C942E1C1D
:103660005F3FE4F3983ED4F3869577956795B795D9
:10367000F7959F5FC9F7880F911D9695879597F9E4
:103680000895E1E0660F771F881FBB1F621773075D
:103690008407BA0720F0621B730B840BBA0BEE1F72
:1036A00088F7E09508950E94131C88F09F5798F0C2
:1036B000B92F9927B751B0F0E1F0660F771F881F37
:1036C000991F1AF0BA95C9F714C0B13091F00E9451
:1036D0002D1CB1E008950C942D1C672F782F88279E
:1036E000B85F39F0B93FCCF3869577956795B39578
:1036F000D9F73EF490958095709561957F4F8F4FE7
:103700009F4F0895E89409C097FB3EF490958095EB
:10371000709561957F4F8F4F9F4F9923A9F0F92F97
:1037200096E9BB279395F695879577956795B79515
:10373000F111F8CFFAF4BB0F11F460FF1BC06F5FFB
:103740007F4F8F4F9F4F16C0882311F096E911C00D
:10375000772321F09EE8872F762F05C0662371F02E
:1037600096E8862F70E060E02AF09A95660F771F42
:10377000881FDAF7880F9695879597F90895990F1E
:103780000008550FAA0BE0E8FEEF16161706E8072B
:10379000F907C0F012161306E407F50798F0621B4C
:1037A000730B840B950B39F40A2661F0232B242B21
:1037B000252B21F408950A2609F4A140A6958FEF40
:1037C000811D811D089597F99F6780E870E060E092
:1037D00008959FEF80EC089500240A9416161706AA
:1037E00018060906089500240A94121613061406F2
:1037F00005060895092E0394000C11F4882352F055
:10380000BB0F40F4BF2B11F460FF04C06F5F7F4F0C
:103810008F4F9F4F089557FD9058440F551F59F0F3
:103820005F3F71F04795880F97FB991F61F09F3FAD
:1038300079F087950895121613061406551FF2CFD6
:103840004695F1DF08C0161617061806991FF1CF26
:1038500086957105610508940895E894BB2766274D
:103860007727CB0197F908950E94BF1B08F48FEFCB
:1038700008950E944C1C0C94FA1B0E94EC1B38F01B
:103880000E94F31B20F0952311F00C94E31B0C9481
:10389000E91B11240C942E1C0E940B1C70F3959FA5
:1038A000C1F3950F50E0551F629FF001729FBB2737
:1038B000F00DB11D639FAA27F00DB11DAA1F649FD3
:1038C0006627B00DA11D661F829F2227B00DA11D86
:1038D000621F739FB00DA11D621F839FA00D611D0C
:1038E000221F749F3327A00D611D231F849F600D2D
:1038F000211D822F762F6A2F11249F5750409AF056
:10390000F1F088234AF0EE0FFF1FBB1F661F771FE1
:10391000881F91505040A9F79E3F510580F00C94AC
:10392000E31B0C942E1C5F3FE4F3983ED4F3869582
:1039300077956795B795F795E7959F5FC1F7FE2B4C
:10394000880F911D9695879597F908950E94BF1B42
:10395000880B990B089597FB072E16F4009407D057
:1039600077FD09D00E94E11C07FC05D03EF490953C
:1039700081959F4F0895709561957F4F0895A1E2BD
:103980001A2EAA1BBB1BFD010DC0AA1FBB1FEE1FD9
:10399000FF1FA217B307E407F50720F0A21BB30B24
:1039A000E40BF50B661F771F881F991F1A9469F7A0
:1039B00060957095809590959B01AC01BD01CF01FC
:1039C0000895AA1BBB1B51E107C0AA1FBB1FA61766
:1039D000B70710F0A61BB70B881F991F5A95A9F7B8
:1039E00080959095BC01CD010895EE0FFF1F0590C5
:1039F000F491E02D09940F931F93CF93DF938230BE
:103A0000910510F482E090E0E0914005F0914105CD
:103A100030E020E0B0E0A0E0309799F421153105C6
:103A200009F44AC0281B390B24303105D8F58A81A6
:103A30009B816115710589F1FB0193838283FE01EE
:103A400011C0408151810281138148175907E0F06C
:103A50004817590799F4109761F012960C93129732
:103A600013961C933296CF01DF91CF911F910F9146
:103A700008950093400510934105F4CF21153105B9
:103A800051F04217530738F0A901DB019A01BD013B
:103A9000DF01F801C1CFEF01F9CF90934105809389
:103AA0004005CDCFFE01E20FF31F81939193225089
:103AB000310939832883D7CF20913E0530913F05C6
:103AC000232B41F42091FA023091FB0230933F0501
:103AD00020933E052091F8023091F902211531051D
:103AE00041F42DB73EB74091FC025091FD02241BDA
:103AF000350BE0913E05F0913F05E217F307A0F486
:103B00002E1B3F0B2817390778F0AC014E5F5F4F33
:103B10002417350748F04E0F5F1F50933F05409321
:103B20003E05819391939FCFF0E0E0E09CCFCF934F
:103B3000DF930097E9F0FC01329713821282A09183
:103B40004005B0914105ED0130E020E01097A1F46F
:103B500020813181820F931F20913E0530913F05D6
:103B60002817390709F061C0F0933F05E0933E053F
:103B7000DF91CF910895EA01CE17DF07E8F54A817A
:103B80005B819E0141155105B1F7E901FB83EA8391
:103B900049915991C40FD51FEC17FD0761F480813D
:103BA00091810296840F951FE90199838883828110
:103BB00093819B838A83F0E0E0E012968D919C9143
:103BC00013970097B9F52D913C911197CD0102966D
:103BD000820F931F20913E0530913F05281739072A
:103BE00039F6309751F51092410510924005B09387
:103BF0003F05A0933E05BCCFD383C2834081518152
:103C0000840F951FC817D90761F44E5F5F4F8881F5
:103C10009981480F591F518340838A819B819383E7
:103C200082832115310509F0B0CFF0934105E0936F
:103C300040059ECFFD01DC01C0CF13821282D7CF99
:103C400081E090E0F8940C94251E12E0C2EED2E0E0
:103C500004C0FE010E94F51C2196C33ED107C9F79E
:103C6000F894FFCF000000000000000000000000FA
:103C70000000000000000000000000000000000044
:103C800000000000000000000000C0E0F0F8FCFCB4
:103C9000FEFFFCE00000000000000000000000004B
:103CA0000000000000000000000000000000000014
:103CB0000000000000000000000000000000000004
:103CC000000000000000000000F8F8F8F8F8F8F82C
:103CD000F8F8F8F8F8F0F0E0E0C080C0FCFFFFFF73
:103CE000FF7F3F7FFFFFFFFFFF000000000000009D
:103CF00000000000000000000000000000000000C4
:103D000000000000000000000000000000000000B3
:103D100000000000000000000000000000000F1F75
:103D20003F7FFFFFFFFFFFFFFFFFE7C7C7878F9FB3
:103D30009FFFFFFFC1C0E0FCFFFFFFFFFFFCFCFC9B
:103D4000FCFEFEFEFCFCF8F8F0E0C0C00000000045
:103D50000000000000000000000000000000000063
:103D60000000000000000000000000000000000053
:103D7000000000000080C0E0F1FBFFFFFFFFFF7FBD
:103D80001F0F0F87E7FFFFFF1F1F3FF9F8F8F8F835
:103D9000F8F8FDFFFFFFFFFFFFFFFFFF7F3F0F076B
:103DA0000100000000000000000000000000000012
:103DB0000000000000000000000000000000000003
:103DC00000000000000000F0FEFFFFFFFFFFFFFF0C
:103DD000FFFFFFFE7E3F3F0F1FFFFFFFFCF0E0F104
:103DE000FFFFFFFFFFFCF0010101010101010100E4
:103DF00000000000000000000000000000000000C3
:103E000000000000000000000000000000000000B2
:103E10000000000000000000000000030303030393
:103E20000303030101010100000000000000030F73
:103E30001F3F7F7FFFFFFFFF7F7F1F03000000000A
:103E40000000000000000000000000000000000072
:103E5000000000000000000000000000000042051B
:103E6000800000000000B305130540050006710541
:103E70004F0563050000000039061305310E3806B2
:103E80009506AB062006000000006D091305310EF3
:103E9000300EC00D3806120CEA0B060CFA0B190C8A
:103EA00038063307AF0DB10B780B330B160B9E0A98
:103EB0003F0A56000D0A006E616E00696E66006F63
:103EC000766600686F6C610056313A200056323ACF
:0C3ED000200056333A200056343A2000FF
:107E0000112484B714BE81FFF0D085E080938100F7
:107E100082E08093C00088E18093C10086E0809377
:107E2000C20080E18093C4008EE0C9D0259A86E02C
:107E300020E33CEF91E0309385002093840096BBD3
:107E4000B09BFECF1D9AA8958150A9F7CC24DD24C4
:107E500088248394B5E0AB2EA1E19A2EF3E0BF2EE7
:107E6000A2D0813461F49FD0082FAFD0023811F036
:107E7000013811F484E001C083E08DD089C08234E0
:107E800011F484E103C0853419F485E0A6D080C0E4
:107E9000853579F488D0E82EFF2485D0082F10E0AE
:107EA000102F00270E291F29000F111F8ED06801E7
:107EB0006FC0863521F484E090D080E0DECF843638
:107EC00009F040C070D06FD0082F6DD080E0C81688
:107ED00080E7D80618F4F601B7BEE895C0E0D1E017
:107EE00062D089930C17E1F7F0E0CF16F0E7DF06D8
:107EF00018F0F601B7BEE89568D007B600FCFDCFD4
:107F0000A601A0E0B1E02C9130E011968C91119780
:107F100090E0982F8827822B932B1296FA010C0160
:107F200087BEE89511244E5F5F4FF1E0A038BF0790
:107F300051F7F601A7BEE89507B600FCFDCF97BE46
:107F4000E89526C08437B1F42ED02DD0F82E2BD052
:107F50003CD0F601EF2C8F010F5F1F4F84911BD097
:107F6000EA94F801C1F70894C11CD11CFA94CF0C13
:107F7000D11C0EC0853739F428D08EE10CD085E9AC
:107F80000AD08FE07ACF813511F488E018D01DD067
:107F900080E101D065CF982F8091C00085FFFCCF94
:107FA0009093C60008958091C00087FFFCCF809118
:107FB000C00084FD01C0A8958091C6000895E0E648
:107FC000F0E098E1908380830895EDDF803219F02E
:107FD00088E0F5DFFFCF84E1DECF1F93182FE3DFCA
:107FE0001150E9F7F2DF1F91089580E0E8DFEE27F6
:047FF000FF270994CA
:027FFE00040479
:00000001FF
